:100000000C94B1000C94D9000C94D9000C94030406
:100010000C94DF030C94BB030C94D9000C94D9000E
:100020000C94D9000C94D9000C94D9000C94D900EC
:100030000C94D9000C94D9000C94D9000C94D900DC
:100040000C9471030C94D9000C9462040C94270452
:100050000C94D9000C94D9000C94D9000C94D900BC
:100060000C94D9000C94D900000000002400270053
:100070002A0000C201000100110011000C0000E183
:1000800000000A002500250021000096000019004C
:10009000390039003600127A00001F004600460081
:1000A00044008070000022004D004D004A00004BCB
:1000B00000003600750075007200403800004A00EC
:1000C0009C009C009900802500007200EC00EC0070
:1000D000E900C0120000E900DA01DA01D701600985
:1000E0000000D701B603B603B303B0040000B303A6
:1000F0006E076E076B07580200006E07DC0EDC0E01
:10010000D80E2C010000DC0EC11DC11DBE1D00005B
:1001100000070002010000030406000000000000C8
:10012000000000000000250028002B000000000057
:100130002300260029000404040404040404020229
:100140000202020203030303030301020408102056
:1001500040800102040810200102040810209C04C1
:10016000B60611241FBECFEFD8E0DEBFCDBF11E031
:10017000A0E0B1E0EEE4FEE002C005900D92A032F6
:10018000B107D9F722E0A0E2B1E001C01D92A3338C
:10019000B207E1F710E0C0EBD0E004C02197FE0108
:1001A0000E941407CF3AD107C9F70E9455050C9455
:1001B000E9060C94000090E0FC01E25FFE4F249100
:1001C000FC01E65BFE4F3491FC01EA5CFE4FE491DA
:1001D000EE23B1F1222339F1233091F038F42130AC
:1001E000A9F0223001F584B58F7D12C0263091F040
:1001F0002730A1F02430B9F4809180008F7D03C0B6
:10020000809180008F77809380000DC084B58F77B8
:1002100084BD09C08091B0008F7703C08091B00089
:100220008F7D8093B000F0E0EE0FFF1FEE5DFE4F7C
:10023000A591B4918FB7F894EC913E2B3C938FBF6E
:1002400008950895CF92DF92EF92FF920F931F933C
:10025000CF93DF936C01EB017B01E40EF51E00E010
:1002600010E0CE15DF0561F06991D601ED91FC91AA
:100270000190F081E02DC6010995080F191FF1CFFB
:10028000C801DF91CF911F910F91FF90EF90DF9008
:10029000CF900895DC015196ED91FC915297908199
:1002A00050968C91809589238083089520916201D6
:1002B000309163012817390781F490916101809191
:1002C0006001981751F0E0916101F0E0E05EFE4FAF
:1002D0008081082E000C990B08958FEF9FEF0895F1
:1002E00020916201309163012817390739F48FB7E3
:1002F000F89410926001109261018FBF08952091CF
:100300006201309163012817390771F4809160010F
:100310002091610190E0805C9F4F821B910960E415
:1003200070E00E94EC06089580E090E0089520912E
:1003300062013091630128173907B9F49091610186
:1003400080916001981789F0E0916101F0E0E05E32
:10035000FE4F80812091610130E02F5F3F4F2F736E
:1003600033272093610190E008958FEF9FEF089568
:1003700020E001972FEF8F3F9207D9F70895EF9272
:10038000FF920F931F93CF93DF93C0916201D0919F
:100390006301209709F450C09B8DEE85FF858D8504
:1003A00091FF04C09081892329F446C0908189235C
:1003B00009F042C08B899C890E94B80188E0E82E30
:1003C000F12C10E001E08D899E890E94B801EE8534
:1003D000FF8590818D85892311F0102B03C0802F1C
:1003E00080951823000F81E0E81AF10861F78F89E2
:1003F000988D0E94B8018B8D81FD109580916001D0
:100400002091610190E001968F73992730E0821767
:10041000930779F0E0916001F0E0E05EFE4F108319
:100420008091600190E001968F739927809360011D
:1004300003C08B8D81608B8FDF91CF911F910F91C6
:10044000FF90EF9008950F931F93CF93DF93FC01DC
:10045000A685B7858D01005C1F4FE80188819981D1
:1004600001968F739927AD014E5B5F4FEA0128819A
:10047000398182179307D1F3E80128813981A20FCE
:10048000B31F6C93A685B785A05CBF4F11969C9354
:100490008E93A689B7892C9181E090E0078C02C0E9
:1004A000880F991F0A94E2F7822B8C9381E081A335
:1004B0000488F589E02D80818064808381E090E06C
:1004C000DF91CF911F910F910895FC0181A18823A5
:1004D00029F0A489B5898C9186FFFBCF11A20895DC
:1004E000FC01A485B585FD01E05CFF4F20813181D1
:1004F0003296808191812817390779F08081918126
:10050000A80FB91F8C91208131812F5F3F4F2F732E
:1005100033273183208390E008958FEF9FEF089574
:10052000DC011C96ED91FC911D97DF01A05CBF4F93
:100530002D913C91119712968D919C9111972817AE
:10054000390739F08D919C91E80FF91F808190E077
:1005500008958FEF9FEF0895FC0124853585F901FB
:10056000E05CFF4F80819181329620813181821B36
:10057000930B8F739927089585EF91E00C94AC024B
:10058000CF93DF9390E0FC01E65BFE4F2491FC01EA
:10059000EA5CFE4F8491882361F190E0880F991FF7
:1005A000FC01E859FF4FC591D491FC01EE5DFE4F6F
:1005B000A591B491611109C09FB7F89488812095E5
:1005C00082238883EC912E230BC0623061F49FB7A5
:1005D000F8943881822F809583238883EC912E2B89
:1005E0002C939FBF06C08FB7F894E8812E2B2883E9
:1005F0008FBFDF91CF910895DF92EF92FF920F931B
:100600001F93CF93DF93EC01298D3A8D211531058E
:1006100029F481E090E09B838A835AC0162FDFB6CD
:10062000F8948B8D81FD4DC0CE010E944A01898DC9
:100630009A8D05960E94B8018B8D98E0E92EF12CD9
:1006400001E081FF1AC0802F812321F0CE010E949A
:100650004A0106C0E989FA8990818889892B8083BB
:10066000898D9A8D0E94B801000F81E0E81AF10887
:1006700051F7CE010E944A011CC0802F812339F01E
:10068000E989FA8990818889892B808303C0CE010A
:100690000E944A01898D9A8D0E94B801000F81E065
:1006A000E81AF10851F7E989FA8990818889892B3C
:1006B0008083DFBE898D9A8D0E94B80121E030E0F1
:1006C00007C0E989FA8990818889892B8083AFCF17
:1006D000C901DF91CF911F910F91FF90EF90DF90B3
:1006E00008951F920F920FB60F9211242F933F93EC
:1006F0008F939F93AF93BF938091690190916A010B
:10070000A0916B01B0916C013091680123E0230F3F
:100710002D3720F40196A11DB11D05C026E8230F39
:100720000296A11DB11D20936801809369019093E9
:100730006A01A0936B01B0936C0180916401909168
:100740006501A0916601B09167010196A11DB11DDF
:100750008093640190936501A0936601B093670153
:10076000BF91AF919F918F913F912F910F900FBEAD
:100770000F901F9018951F920F920FB60F92112491
:100780002F933F934F935F936F937F938F939F9399
:10079000AF93BF93EF93FF930E94BF01FF91EF913F
:1007A000BF91AF919F918F917F916F915F914F9189
:1007B0003F912F910F900FBE0F901F9018951F9291
:1007C0000F920FB60F9211242F933F934F935F9385
:1007D0006F937F938F939F93AF93BF93EF93FF9309
:1007E0000E94BF01FF91EF91BF91AF919F918F91B7
:1007F0007F916F915F914F913F912F910F900FBE1D
:100800000F901F9018951F920F920FB60F92112400
:100810002F933F934F935F936F937F938F939F9308
:10082000AF93BF93EF93FF930E94BF01FF91EF91AE
:10083000BF91AF919F918F917F916F915F914F91F8
:100840003F912F910F900FBE0F901F9018951F9200
:100850000F920FB60F9211242F933F938F939F9374
:10086000EF93FF932091AD013091AE018091AF01E4
:100870009091B0012817390731F48091C1008F7D24
:100880008093C10014C0E091AF01F091B001E35931
:10089000FE4F20818091AF019091B00101968F733E
:1008A00099279093B0018093AF012093C600FF91E8
:1008B000EF919F918F913F912F910F900FBE0F90CD
:1008C0001F9018951F920F920FB60F9211242F931D
:1008D0004F935F938F939F93EF93FF938091C0000B
:1008E00082FD1CC02091C6008091F1019091F2011F
:1008F00001968F7399274091F3015091F401841769
:10090000950771F0E091F101F091F201EF54FE4F83
:1009100020839093F2018093F10102C08091C60080
:10092000FF91EF919F918F915F914F912F910F9038
:100930000FBE0F901F9018951092F8011092F701BA
:1009400088EE93E0A0E0B0E08093F9019093FA0183
:10095000A093FB01B093FC0124E031E03093F60159
:100960002093F50121EB31E0309302022093010244
:100970002DE631E0309304022093030225EC30E0B1
:10098000309306022093050224EC30E030930802F5
:100990002093070220EC30E030930A0220930902F2
:1009A00021EC30E030930C0220930B0222EC30E07B
:1009B00030930E0220930D0226EC30E030931002AB
:1009C00020930F0224E02093110223E020931202CF
:1009D00027E02093130225E02093140221E02093C6
:1009E000150210921A021092190280931B02909322
:1009F0001C02A0931D02B0931E0284E191E090932B
:100A000018028093170210922B0210922A02109261
:100A10002D0210922C0210922F0210922E02109290
:100A2000310210923002809132028E7F8D7F80934E
:100A3000320261E083E00E94C00283E00E94DB009A
:100A4000EDE4F1E0E491E0932702E9E3F1E0E491E1
:100A5000F0E0EE0FFF1FEE5DFE4F859194919093B5
:100A600029028093280260E082E00E94C002809107
:100A7000320281FD03C082E00E94DB0082E08093AD
:100A80002302ECE4F1E0E491E0932402E8E3F1E0F6
:100A9000E491F0E0EE0FFF1FE45DFE4F859194912D
:100AA00090932602809325020895789484B58260FD
:100AB00084BD84B5816084BD85B5826085BD85B502
:100AC000816085BD80916E00816080936E00109280
:100AD00081008091810082608093810080918100FB
:100AE000816080938100809180008160809380008C
:100AF0008091B10084608093B1008091B0008160EA
:100B00008093B00080917A00846080937A00809115
:100B10007A00826080937A0080917A00816080936D
:100B20007A0080917A00806880937A001092C100E8
:100B3000E0910902F0910A0281E090E09C010090AE
:100B4000150202C0220F331F0A94E2F72083E091BE
:100B50000502F09106021082E0910702F09108026E
:100B60002FEC208310921602E0910B02F0910C0200
:100B700040819C010090110202C0220F331F0A9491
:100B8000E2F7242B2083E0910B02F0910C024081CC
:100B90009C010090120202C0220F331F0A94E2F758
:100BA000242B2083E0910B02F0910C0240819C01E8
:100BB0000090130202C0220F331F0A94E2F7242B85
:100BC0002083E0910B02F0910C022081009014022E
:100BD00002C0880F991F0A94E2F7809582238083D0
:100BE000109231021092300210922F0210922E02B7
:100BF00010922D0210922C0210922B0210922A02B7
:100C000082E790E020E030E0FC014591559165914C
:100C100074914115524C6140710559F54CE0429F69
:100C2000C001439F900D1124FC01EA58FF4F25910C
:100C3000349130932B0220932A02FC01E858FF4F95
:100C40002591349130932D0220932C02FC01E6581B
:100C5000FF4F2591349130932F0220932E02FC01F7
:100C6000E458FF4F85919491909331028093300224
:100C700007C02F5F3F4F0C962D30310509F0C4CFD0
:100C800080912E0290912F02892B09F446C09091F9
:100C900023029631E0F520916800983050F031E061
:100CA0009E3008F430E081E001C0880F3A95EAF701
:100CB00001C084E0822B80936800983038F09E3029
:100CC00040F0963148F4ECE6F0E008C0EDE6F0E0E4
:100CD00005C0EBE6F0E002C0E0E0F0E040819830D3
:100CE00030F481E001C0880F9A95EAF70EC0292FF1
:100CF00030E09E3018F42850310902C02E503109DE
:100D000081E001C0880F2A95EAF7842B80838091C7
:100D10003002909131020E94B8018091620190915D
:100D200063018751924091F0809132028E7F8093CF
:100D300032028FB7F894109260011092610127E19E
:100D400032E030936301209362018FBF61E08DE058
:100D50000E94C00287E192E00E947F01892B19F076
:100D60008DE00E94DB000E94BC02F4CF84E191E0A0
:100D7000909318028093170220912302263140F5A8
:100D8000283028F02E3030F0ECE6F0E005C0EDE63B
:100D9000F0E002C0EBE6F0E03081283038F481E08A
:100DA00090E001C0880F2A95EAF70FC0422F50E06B
:100DB0002E3018F44850510902C04E50510981E0BC
:100DC00090E001C0880F4A95EAF7809583238083DD
:100DD0000895F8940C941A0797FB072E16F40094C4
:100DE00007D077FD09D00E94000707FC05D03EF42C
:100DF000909581959F4F0895709561957F4F0895C7
:100E0000AA1BBB1B51E107C0AA1FBB1FA617B70730
:100E100010F0A61BB70B881F991F5A95A9F780954C
:100E20009095BC01CD010895EE0FFF1F0590F49140
:100E3000E02D099410E0C0EBD0E004C0FE010E9458
:0E0E400014072196C13BD107C9F7F894FFCFE4
:100E4E000000000023022201AC0270029002650233
:100E5E0000000000FC0222017F0197015601700183
:00000001FF
