:100000000C9420010C9448010C9448010C941107A5
:100010000C94ED060C94C9060C9448010C9448010C
:100020000C9448010C9448010C9448010C9448012C
:100030000C9448010C9448010C9448010C9448011C
:100040000C944B030C9448010C9482020C944702CC
:100050000C9448010C9448010C9448010C944801FC
:100060000C9448010C94480100C2010001001100E9
:1000700011000C0000E100000A002500250021000D
:10008000009600001900390039003600127A00008D
:100090001F004600460044008070000022004D0012
:1000A0004D004A00004B00003600750075007200DC
:1000B000403800004A009C009C0099008025000008
:1000C0007200EC00EC00E900C0120000E900DA0167
:1000D000DA01D70160090000D701B603B603B30304
:1000E000B0040000B3036E076E076B0758020000F0
:1000F0006E07DC0EDC0ED80E2C010000DC0EC11DDC
:10010000C11DBE1D3E20005B745D202D20706C6102
:100110007974696D6520737461747573005B715DCA
:10012000202D2073746F7020706C6179696E670088
:100130005B3E5D202D20756E706175736520706C5F
:100140006179696E67005B3D5D202D20706175737C
:100150006520706C6179696E67005B235D202D20DE
:10016000706C61792062792066696C65206E756DAE
:10017000626572005B505D202D20706C6179206299
:10018000792066696C65206E616D65005B4C5D2051
:100190002D204C6973742066696C6573005B2D5D5E
:1001A000202D20566F6C202D005B2B5D202D2056BE
:1001B0006F6C202B005B725D202D2072657365745F
:1001C000005768617420776F756C6420796F7520B3
:1001D0006C696B6520746F20646F3F002D2D2D3E80
:1001E000200000000000240027002A000000000773
:1001F00000020100000304060000000000000000EF
:1002000000000000250028002B0000000000230053
:100210002600290004040404040404040202020267
:1002200002020303030303030102040810204080B9
:10023000010204081020010204081020160DE30C2E
:1002400011241FBECFEFD8E0DEBFCDBF13E0A0E08A
:10025000B1E0ECEDFDE102C005900D92A431B107D3
:10026000D9F726E0A4E1B3E001C01D92A231B207A4
:10027000E1F711E0CFE1D1E004C02197FE010E9437
:10028000CC0ECE31D107C9F70E9435070C943D0E34
:100290000C940000DC011C96ED91FC911D97DF0190
:1002A000A05CBF4F2D913C91119712968D919C911E
:1002B00011972817390739F08D919C91E80FF91F94
:1002C000808190E008958FEF9FEF0895FC012485D1
:1002D0003585F901E05CFF4F808191813296208164
:1002E0003181821B930B8F739927089589EA93E0DC
:1002F0000C9466010895DC01ED91FC910190F08170
:10030000E02D0994CF92DF92EF92FF920F931F930B
:10031000CF93DF936C01EB017B01E40EF51E00E04F
:1003200010E0CE15DF0561F06991D601ED91FC91E9
:100330000190F081E02DC6010995080F191FF1CF3A
:10034000C801DF91CF911F910F91FF90EF90DF9047
:10035000CF9008953FB7F8948091150390911603BC
:10036000A0911703B091180326B5A89B05C02F3F95
:1003700019F00196A11DB11D3FBFBA2FA92F982FCB
:100380008827820F911DA11DB11DBC01CD0142E046
:10039000660F771F881F991F4A95D1F7089589EA3C
:1003A00093E00E946601892BD1F389EA93E00E94D1
:1003B000D80408956115710579F0FB0101900020C2
:1003C000E9F73197AF01461B570BDC01ED91FC912A
:1003D0000280F381E02D099480E090E008958F92EF
:1003E0009F92AF92BF92CF92DF92EF92FF920F93C4
:1003F0001F93CF93DF93CDB7DEB7A1970FB6F894D5
:10040000DEBF0FBECDBF6C01142FE52FCB01022F35
:1004100019A2223008F40AE07E0121E2E20EF11C6A
:10042000802E912CA12CB12C612F7E2FA50194013F
:100430000E948B0E029F1019112481E0E81AF10826
:100440001A3014F4105D01C0195CF7011083122FEB
:10045000E32FCA01232B242B252B31F7B701C6012B
:100460000E94DA01A1960FB6F894DEBF0FBECDBF91
:10047000DF91CF911F910F91FF90EF90DF90CF9080
:10048000BF90AF909F908F9008950C94DA011F92C7
:100490000F920FB60F9211242F933F938F939F9338
:1004A000EF93FF9320916103309162038091630386
:1004B000909164032817390731F48091C1008F7D32
:1004C0008093C10014C0E0916303F0916403EF5D79
:1004D000FC4F2081809163039091640301968F7398
:1004E000992790936403809363032093C600FF9140
:1004F000EF919F918F913F912F910F900FBE0F9091
:100500001F9018951F920F920FB60F9211242F93E0
:100510004F935F938F939F93EF93FF938091C000CE
:1005200082FD1CC02091C6008091A5039091A60376
:1005300001968F7399274091A7035091A8038417C0
:10054000950771F0E091A503F091A603EB59FC4FDC
:1005500020839093A6038093A50302C08091C600D8
:10056000FF91EF919F918F915F914F912F910F90FC
:100570000FBE0F901F9018950F931F93CF93DF938B
:10058000EC016DE00E947B018C016AE0CE010E94CB
:100590007B01800F911FDF91CF911F910F910895E3
:1005A0000F931F93CF93DF93EC010E94DA018C012C
:1005B000CE010E94BC02800F911FDF91CF911F914D
:1005C0000F910895EF92FF920F931F93CF93DF93B4
:1005D0007C01FB0100E010E06491EF0121966623AD
:1005E00061F0D701ED91FC910190F081E02DC70100
:1005F0000995080F191FFE01EFCFC801DF91CF91B8
:100600001F910F91FF90EF900895CF92DF92EF929C
:10061000FF92CF93DF936B017C010E94AA01EB0153
:10062000C114D104E104F10479F00E94AA016C1B09
:100630007D0B683E7340A0F381E0C81AD108E10841
:10064000F108C851DC4FECCFDF91CF91FF90EF90D4
:10065000DF90CF900895CF93DF93C0E0D0E0CE013C
:100660000196A897A8F4EC0186EB95E00E9452044D
:10067000892B39F086EB95E00E946A04C0E0D0E057
:10068000F3CF61E070E080E090E00E940503E7CFE7
:10069000DF91CF9108951F920F920FB60F92112400
:1006A0002F933F938F939F93AF93BF9380911D039D
:1006B00090911E03A0911F03B09120033091140369
:1006C00023E0230F2D3720F40196A11DB11D05C095
:1006D00026E8230F0296A11DB11D209314038093D9
:1006E0001D0390931E03A0931F03B09320038091DA
:1006F000150390911603A0911703B091180301966A
:10070000A11DB11D8093150390931603A0931703A9
:10071000B0931803BF91AF919F918F913F912F910B
:100720000F900FBE0F901F90189590E0FC01E451C0
:10073000FE4F3491FC01E85DFD4F2491FC01EC5E1D
:10074000FD4FE491EE2309F43BC0332339F13330FC
:1007500091F038F43130A9F0323001F584B58F7D55
:1007600012C0363091F03730A1F03430B9F48091B6
:1007700080008F7D03C0809180008F778093800000
:100780000DC084B58F7784BD09C08091B0008F778C
:1007900003C08091B0008F7D8093B000F0E0EE0F39
:1007A000FF1FE050FE4FA591B4918FB7F894EC91E4
:1007B000611103C020952E2301C02E2B2C938FBFD7
:1007C0000895CF93DF9390E0FC01E85DFD4F249105
:1007D000FC01EC5EFD4F8491882361F190E0880F6D
:1007E000991FFC01EE51FE4FC591D491FC01E050E0
:1007F000FE4FA591B491611109C09FB7F89488810B
:10080000209582238883EC912E230BC0623061F403
:100810009FB7F8943881822F809583238883EC9149
:100820002E2B2C939FBF06C08FB7F894E8812E2BF8
:1008300028838FBFDF91CF910895DC015196ED9110
:10084000FC915297908150968C918095892380835A
:10085000089520911B0330911C032817390781F458
:1008600090911A0380911903981751F0E0911A039F
:10087000F0E0EE52FA4F8081082E000C990B08959B
:100880008FEF9FEF089520911B0330911C032817D1
:10089000390739F48FB7F8941092190310921A039C
:1008A0008FBF089520911B0330911C03281739072F
:1008B00071F48091190320911A0390E0805C9F4F9E
:1008C000821B910960E470E00E94770E089580E039
:1008D00090E0089520911B0330911C0328173907DD
:1008E000B9F490911A0380911903981789F0E09157
:1008F0001A03F0E0EE52FA4F808120911A0330E0A3
:100900002F5F3F4F2F73332720931A0390E00895F2
:100910008FEF9FEF08950F931F93CF93DF93FC0109
:10092000A685B7858D01005C1F4FE80188819981FC
:1009300001968F739927AD014E5B5F4FEA012881C5
:10094000398182179307D1F3E80128813981A20FF9
:10095000B31F6C93A685B785A05CBF4F11969C937F
:100960008E93A689B7892C9181E090E0078C02C014
:10097000880F991F0A94E2F7822B8C9381E081A360
:100980000488F589E02D80818064808381E090E097
:10099000DF91CF911F910F910895FC0181A18823D0
:1009A00029F0A489B5898C9186FFFBCF11A2089507
:1009B000FC01A485B585FD01E05CFF4F20813181FC
:1009C0003296808191812817390779F08081918151
:1009D000A80FB91F8C91208131812F5F3F4F2F735A
:1009E00033273183208390E008958FEF9FEF0895A0
:1009F000EF92FF921F93CF93DF93EC01162F8E811E
:100A00009F810097C9F07E0129E5E20EF11CD70114
:100A10002C91211107C06CED71E00E94E20281E08F
:100A2000F70180838E819F81DC01ED91FC91019023
:100A3000F081E02D612F09958C819D81DC01ED9184
:100A4000FC910190F081E02D612FDF91CF911F91FA
:100A5000FF90EF900994CF93DF93BC0189EA93E074
:100A60000E94E202EC0189EA93E00E94BC028C0F32
:100A70009D1FDF91CF910895CF93DF93EC012FB7A6
:100A8000F89480911D0390911E03A0911F03B091D3
:100A900020032FBF88879987AA87BB87E881F981C0
:100AA0000680F781E02DCE01099597FF1EC02FB774
:100AB000F89480911D0390911E03A0911F03B091A3
:100AC00020032FBF488559856A857B85841B950B3C
:100AD000A60BB70B4C815D816E817F8184179507D2
:100AE000A607B707D8F28FEF9FEFDF91CF91089558
:100AF0000F931F93CF93DF930091CF031091D003F7
:100B0000C0E0D0E0C8010E943C0597FD0BC08A30D0
:100B1000910541F0FE01E553FC4F81872196C035D8
:100B2000D10581F7FE01E553FC4F11868091CF037B
:100B30009091D003DC01ED91FC910084F185E02DD2
:100B400009950D9759F48091CF039091D003DC0162
:100B5000ED91FC910680F781E02D0995CE01DF91A2
:100B6000CF911F910F91089560E08091D3030E946F
:100B7000950361E08091D3030E94E1036AE070E095
:100B800080E090E00E94050360E08091D3030E9422
:100B9000E10368EE73E080E090E00E9405030E94AC
:100BA00078050E9478056BEF72E084ED93E00E9477
:100BB0005D0E892B61F06AEF70E080E090E00E94AA
:100BC00005030E9478050E94780581E0089580E081
:100BD000089520E001972FEF8F3F9207D9F70895EE
:100BE000DF92EF92FF920F931F93CF93DF93EC016D
:100BF000298D3A8D2115310529F481E090E09B8300
:100C00008A835AC0162FDFB6F8948B8D81FD4DC0B4
:100C1000CE010E941D04898D9A8D05960E94E905DA
:100C20008B8D98E0E92EF12C01E081FF1AC0802F16
:100C3000812321F0CE010E941D0406C0E989FA89B2
:100C400090818889892B8083898D9A8D0E94E905FE
:100C5000000F81E0E81AF10851F7CE010E941D044F
:100C60001CC0802F812339F0E989FA899081888915
:100C7000892B808303C0CE010E941D04898D9A8D2B
:100C80000E94E905000F81E0E81AF10851F7E989AF
:100C9000FA8990818889892B8083DFBE898D9A8D1E
:100CA0000E94E90521E030E007C0E989FA899081D6
:100CB0008889892B8083AFCFC901DF91CF911F91A4
:100CC0000F91FF90EF90DF900895EF92FF920F93B6
:100CD0001F93CF93DF93C0911B03D0911C032097E8
:100CE00009F450C09B8DEE85FF858D8591FF04C072
:100CF0009081892329F446C09081892309F042C05C
:100D00008B899C890E94E90588E0E82EF12C10E08F
:100D100001E08D899E890E94E905EE85FF8590811D
:100D20008D85892311F0102B03C0802F8095182307
:100D3000000F81E0E81AF10861F78F89988D0E9411
:100D4000E9058B8D81FD10958091190320911A037F
:100D500090E001968F73992730E08217930779F01E
:100D6000E0911903F0E0EE52FA4F108380911903DD
:100D700090E001968F7399278093190303C08B8DA0
:100D800081608B8FDF91CF911F910F91FF90EF903A
:100D900008951F920F920FB60F9211242F933F9335
:100DA0004F935F936F937F938F939F93AF93BF9373
:100DB000EF93FF930E946506FF91EF91BF91AF9172
:100DC0009F918F917F916F915F914F913F912F9163
:100DD0000F900FBE0F901F9018951F920F920FB695
:100DE0000F9211242F933F934F935F936F937F93B1
:100DF0008F939F93AF93BF93EF93FF930E946506EA
:100E0000FF91EF91BF91AF919F918F917F916F91E2
:100E10005F914F913F912F910F900FBE0F901F90B8
:100E200018951F920F920FB60F9211242F933F9394
:100E30004F935F936F937F938F939F93AF93BF93E2
:100E4000EF93FF930E946506FF91EF91BF91AF91E1
:100E50009F918F917F916F915F914F913F912F91D2
:100E60000F900FBE0F901F901895CF93DF93CDB7C3
:100E7000DEB76E970FB6F894DEBF0FBECDBF789485
:100E800084B5826084BD84B5816084BD85B582608F
:100E900085BD85B5816085BD80916E008160809340
:100EA0006E001092810080918100826080938100A9
:100EB00080918100816080938100809180008160B9
:100EC000809380008091B10084608093B100809114
:100ED000B00081608093B00080917A00846080933C
:100EE0007A0080917A00826080937A0080917A0003
:100EF000816080937A0080917A00806880937A0084
:100F00001092C100E091BD03F091BE0381E090E03A
:100F10009C010090C90302C0220F331F0A94E2F71C
:100F20002083E091B903F091BA031082E091BB03F2
:100F3000F091BC0320E120831092CA03E091BF032B
:100F4000F091C00340819C010090C50302C0220FB4
:100F5000331F0A94E2F7242B2083E091BF03F09122
:100F6000C00340819C010090C60302C0220F331FC2
:100F70000A94E2F7242B2083E091BF03F091C00391
:100F800040819C010090C70302C0220F331F0A94C6
:100F9000E2F7242B2083E091BF03F091C00320816E
:100FA0000090C80302C0880F991F0A94E2F7809549
:100FB0008223808368E271E089EA93E00E94D00294
:100FC0001092D0051092CF051092CE051092CD054B
:100FD0001092CC051092CB051092CA051092C9054B
:100FE00088E690E020E030E0FC0145915591659164
:100FF0007491403855426105710559F54CE0429FA6
:10100000C001439F900D1124FC01E459FF4F25912D
:1010100034913093CA052093C905FC01E259FF4F72
:10102000259134913093CC052093CB05FC01E059F8
:10103000FF4F259134913093CE052093CD05FC01CF
:10104000EE58FF4F859194919093D0058093CF05F2
:1010500007C02F5F3F4F0C962D30310509F0C4CFEC
:101060008091CD059091CE05892B09F446C09091D1
:10107000C2059631E0F520916800983050F031E0DB
:101080009E3008F430E081E001C0880F3A95EAF71D
:1010900001C084E0822B80936800983038F09E3045
:1010A00040F0963148F4ECE6F0E008C0EDE6F0E000
:1010B00005C0EBE6F0E002C0E0E0F0E040819830EF
:1010C00030F481E001C0880F9A95EAF70EC0292F0D
:1010D00030E09E3018F42850310902C02E503109FA
:1010E00081E001C0880F2A95EAF7842B80838091E4
:1010F000CF059091D0050E94E90580911B03909146
:101100001C03865B954091F08091D1058E7F809382
:10111000D1058FB7F8941092190310921A0326EB99
:1011200035E030931C0320931B038FBF0E94B4054E
:10113000811107C06EE371E089EA93E00E94D0025A
:10114000FFCF68E471E089EA93E00E94D00280EE6C
:1011500093E0E0E1E80FED8F0E942B0381EC91E03A
:101160000E942B0585EB91E00E942B0589EA91E016
:101170000E942B058DE991E00E942B058CE891E0FF
:101180000E942B0584E791E00E942B058AE591E0FF
:101190000E942B0586E491E00E942B0580E391E0FC
:1011A0000E942B058DE191E00E942B0587E091E0E4
:1011B0000E942B0584E091E00E942B0589EA93E0D0
:1011C0000E946601892BD1F389EA93E00E94D8043A
:1011D0008E8F0E942B038E8D8C3409F443C0F4F45F
:1011E0008D3209F471C26CF4833209F44DC18B3233
:1011F00009F0C8C36DE072E089EA93E00E94D00272
:1012000046C28D3309F49FC28E3309F0BBC36CE430
:1012100072E089EA93E00E94D002C8C28237D9F016
:101220006CF4803509F4BCC1813709F0ABC369E5C2
:1012300072E089EA93E00E94D002E5C2833709F4A4
:101240004AC3843709F09EC367E672E089EA93E0F7
:101250000E944502FFC20E94B405811193C368E554
:1012600071E09EC38091CF039091D003DC01ED919A
:10127000FC910480F581E02D09950091CF03109138
:10128000D003892B49F0D801ED91FC910680F781BC
:10129000E02DC8010995E6CF6CE4C8010E947B01EE
:1012A000C8010E94BC02109225041CE0E090CF030C
:1012B000F090D003C12CD12CC7010E943C0597FDB2
:1012C00065C08A30910509F461C0F601E553FC4F11
:1012D0008187EFEFCE1ADE0AF0E5CF16D10461F771
:1012E000A09125041A9FD0011124AA5DBB4FE4ED03
:1012F000F3E0812F01900D928A95E1F7009125048A
:10130000202E312C129DF001139DF00D1124EF5C65
:10131000FB4F1082C101880F991F880F991FDC01B4
:10132000AE5ABA4F1D921D921D921C921397E0EE79
:10133000F3E01D01819190ED980F9A3038F00F5F26
:1013400000932504093108F4B1CF23C0C82ED12C55
:10135000B0E3CB1AD1080D2C000CEE08FF08D10128
:101360002D913D914D915C91AAE0B0E00E94AD0EAF
:10137000C60ED71EE81EF91ED101CD92DD92ED9268
:10138000FC921397BD8DBE13D5CFD9CFCD2809F0D0
:10139000A7CF0091250465E671E089EA93E00E94F9
:1013A000D00262E771E089EA93E00E94D00289EA04
:1013B00093E00E94BC026BE871E089EA93E00E942E
:1013C0004502402F50E060E070E02AE089EA93E0B7
:1013D0000E94EF0162E971E089EA93E00E94D00285
:1013E00096E2E92E94E0F92E22E5C22E25E0D22ED7
:1013F000812C912C540110E03AC02AE0B501A401DF
:1014000089EA93E00E94EF0169E971E089EA93E0DB
:101410000E94450280912504181760F5B70189EAFA
:1014200093E00E94450261EA71E089EA93E00E943C
:10143000450280912504181700F5D6014D915D9164
:101440006D917C912AE089EA93E00E94EF0189EA9C
:1014500093E00E94BC021F5FBCE0EB0EF11CE4E0D5
:10146000CE0ED11CFFEF8F1A9F0AAF0ABF0A1013CE
:10147000C4CF07C060E070E0D2CF40E050E0BA01D6
:10148000E1CF62E771E08CC269EA71E089EA93E03A
:101490000E9445020E94CF01082F082E000C110B5C
:1014A000005311090A301105A8F7682F89EA93E063
:1014B0000E947B018AE0F82E0E94CF01C82E082EE0
:1014C000000CDD089601205331092A30310580F4E3
:1014D000682F89EA93E00E947B01F09EC001F19E93
:1014E000900D11248601080F191F00531109E4CF34
:1014F00067EB71E089EA93E00E944502C02ED12C8F
:10150000E12CF12C2AE0B701A60189EA93E00E94C0
:10151000EF0189EA93E00E94BC028091CF03909191
:10152000D003DC01ED91FC910480F581E02D09955B
:10153000A091CF03B091D003892B49F0ED91FC919C
:1015400011970680F781E02DCD010995E6CF66EC75
:1015500071E0CD010E944502A090CF03B090D0036E
:101560002AE0B701A601C5010E94EF01C5010E9452
:10157000BC020E9478050E94780568EC71E084ED59
:1015800093E00E945D0E892B09F4FFC189ED93E081
:101590000E94F80D11270817190709F0F6C1F2C1CA
:1015A0006DEC71E089EA93E00E94450200E010E0F2
:1015B00005311105E0F489EA93E00E946601892B68
:1015C000B9F389EA93E00E94D8048D3089F38A3018
:1015D00021F40115110561F30AC0E1E0F0E0EC0F20
:1015E000FD1FE00FF11F80830F5F1F4FE1CFE1E090
:1015F000F0E0EC0FFD1FE00FF11F10826AEF71E0C9
:1016000089EA93E00E944502BE016F5F7F4F89EA3D
:1016100093E00E94450269E072E089EA93E00E944B
:1016200045028091CF039091D003DC01ED91FC91B4
:101630000480F581E02D0995A091CF03B091D003EE
:10164000892B49F0ED91FC9111970680F781E02DEF
:10165000CD010995E6CF6BE072E0CD010E94450215
:10166000BE016F5F7F4F8091CF039091D0030E94A6
:10167000D0020E9478050E94780568EC71E084ED44
:1016800093E00E945D0E892B09F07CC17EC18091A0
:10169000CF039091D003DC01ED91FC910480F581A2
:1016A000E02D0995A091CF03B091D003892B49F08B
:1016B000ED91FC9111970680F781E02DCD01099500
:1016C000E6CF67E172E022C063E372E089EA93E06B
:1016D0000E94D0028091CF039091D003DC01ED9164
:1016E000FC910480F581E02D0995A091CF03B09184
:1016F000D003892B49F0ED91FC9111970680F78179
:10170000E02DCD010995E6CF6FE372E0CD010E9497
:10171000D0020E94780584ED93E00E94F80D8C01C0
:1017200011270115110519F469E172E039C16AE266
:1017300072E089EA93E00E944502A801110F660B4E
:10174000770B2AE017C161E472E089EA93E00E9416
:10175000D0028091CF039091D003DC01ED91FC91F8
:101760000480F581E02D0995A091CF03B091D003BD
:10177000892B49F0ED91FC9111970680F781E02DBE
:10178000CD010995E6CF69E871E0CD010E944502DF
:101790008091CF039091D0030E943C0597FDF8C043
:1017A0008093D4038D3309F0F3C0ECC08091CF0354
:1017B0009091D003DC01ED91FC910480F581E02D46
:1017C0000995A091CF03B091D003892B49F0ED91F9
:1017D000FC9111970680F781E02DCD010995E6CFA8
:1017E00068EF71E0CD010E9445028091CF03909196
:1017F000D0030E943C0597FDCEC08093D4038E3366
:1018000009F0C9C0BFC08091CF039091D003DC0123
:10181000ED91FC910480F581E02D0995A091CF0315
:10182000B091D003892B49F0ED91FC91119706807E
:10183000F781E02DCD010995E6CF65E672E0CD0197
:101840000E9445020E9478058091D403813709F0F7
:10185000A5C098C08091CF039091D003DC01ED9199
:10186000FC910480F581E02D0995A091CF03B09102
:10187000D003892B49F0ED91FC9111970680F781F7
:10188000E02DCD010995E6CF64E7CD010E947B01F3
:101890000E947805E4EDF3E001900020E9F7E15EB5
:1018A000F34009F082C084ED93E00E94F80D9C01A2
:1018B000990F440B550B298F3A8F4B8F5C8F2AE081
:1018C000498D5A8D6B8D7C8D89EA93E00E94EF01E2
:1018D00064E772E065C06DE772E089EA93E00E9418
:1018E00045028091CF039091D003DC01ED91FC91F2
:1018F0000480F581E02D0995A091CF03B091D0032C
:10190000892B49F0ED91FC9111970680F781E02D2C
:10191000CD010995E6CF63E7CD010E947B010E94CE
:101920007805E4EDF3E001900020E9F7EB5EF34089
:1019300009F042C084ED93E00E94160E6D8B7E8B01
:101940008F8B988F8FED93E00E94160E2B013C0138
:101950002AE04D895E896F89788D89EA93E00E943B
:10196000EF0162EA72E089EA93E00E9445022AE010
:10197000B301A20189EA93E00E94EF0189EA93E0B2
:101980000E94BC020E947601E7CB64EA72E008C0C4
:101990006AEB72E005C06AEC72E002C06CED72E0C6
:1019A00089EA93E00E94D002EDCF6BEE72E089EA03
:1019B00093E00E94D00283CF6BEE72E089EA93E05D
:1019C0000E94D002C5CF8CE191E09093B70580933F
:1019D000B6052091C205263140F5283028F02E307A
:1019E00030F0ECE6F0E005C0EDE6F0E002C0EBE63A
:1019F000F0E03081283038F481E090E001C0880FB9
:101A00002A95EAF70FC0422F50E02E3018F44850C4
:101A1000510902C04E50510981E090E001C0880F89
:101A20004A95EAF780958323808308951092AC034A
:101A30001092AB0388EE93E0A0E0B0E08093AD039A
:101A40009093AE03A093AF03B093B00324E031E0D2
:101A50003093AA032093A90325E633E03093B6031D
:101A60002093B50321E233E03093B8032093B7030A
:101A700025EC30E03093BA032093B90324EC30E036
:101A80003093BC032093BB0320EC30E03093BE03C3
:101A90002093BD0321EC30E03093C0032093BF03BB
:101AA00022EC30E03093C2032093C10326EC30E0F7
:101AB0003093C4032093C30324E02093C50323E0A1
:101AC0002093C60327E02093C70325E02093C80393
:101AD00021E02093C9031092B9051092B8058093B4
:101AE000BA059093BB05A093BC05B093BD058CE1EE
:101AF00091E09093B7058093B6051092CA051092B5
:101B0000C9051092CC051092CB051092CE0510920B
:101B1000CD051092D0051092CF058091D1058E7F12
:101B20008D7F8093D10561E086E00E94E10361E052
:101B300086E00E949503EEE2F2E0E491E093C605B0
:101B4000EAE1F2E0E491F0E0EE0FFF1FE050FE4F1B
:101B5000859194919093C8058093C70560E085E0D6
:101B60000E94E1038091D10581FD04C061E085E020
:101B70000E94950385E08093C205EDE2F2E0E491D6
:101B8000E093C305E9E1F2E0E491F0E0EE0FFF1F1E
:101B9000E65FFD4F859194919093C5058093C405B0
:101BA0001092CE031092CD0384E191E09093CC0388
:101BB0008093CB0386EB95E09093D0038093CF0383
:101BC0001092D2031092D10384E08093D30384EF68
:101BD00091E0A0E0B0E08093BA059093BB05A0939C
:101BE000BC05B093BD0510922404109225040895FD
:101BF000FC0188279927E89421912032E9F32930C4
:101C000010F02E30C8F32B3241F02D3239F46894A5
:101C100004C00E94550E820F911D219120532A303D
:101C2000C0F31EF4909581959F4F08951F93FC017A
:101C300099278827BC01E89411911032E9F31930F3
:101C400010F01E30C8F31B3251F01D3249F4689475
:101C500006C00E94400E610F711D811D911D1191E2
:101C600010531A30B0F33EF49095809570956195BD
:101C70007F4F8F4F9F4F1F910895F8940C94E10E62
:101C8000592F482F372F262F660F771F881F991F30
:101C9000660F771F881F991F620F731F841F951F80
:101CA000660F771F881F991F08957AE0979F902DE0
:101CB000879F802D910D11240895FB01519155238B
:101CC000A9F0BF01DC014D9145174111E1F759F42D
:101CD000CD010190002049F04D9140154111C9F30B
:101CE000FB014111EFCF81E090E00197089597FB50
:101CF000072E16F4009407D077FD09D00E94B80E85
:101D000007FC05D03EF4909581959F4F08957095FE
:101D100061957F4F0895A1E21A2EAA1BBB1BFD01FE
:101D20000DC0AA1FBB1FEE1FFF1FA217B307E407BA
:101D3000F50720F0A21BB30BE40BF50B661F771F12
:101D4000881F991F1A9469F76095709580959095F2
:101D50009B01AC01BD01CF0108950E94D20EA59F49
:101D6000900DB49F900DA49F800D911D1124089596
:101D7000AA1BBB1B51E107C0AA1FBB1FA617B707B1
:101D800010F0A61BB70B881F991F5A95A9F78095CD
:101D90009095BC01CD010895EE0FFF1F0590F491C1
:101DA000E02D0994A29FB001B39FC001A39F700DC5
:101DB000811D1124911DB29F700D811D1124911D53
:101DC000089511E0CFE1D1E004C0FE010E94CC0EE5
:0C1DD0002196C032D107C9F7F894FFCF6C
:101DDC00000000008B0482016601D8044A01CD0486
:101DEC0000000000F804820100000000F0058201F0
:101DFC0052046A042904430441646166727569746F
:101E0C0020536F756E6420426F61726421004E6FB7
:101E1C007420666F756E640053465820626F617251
:101E2C006420666F756E640052657365742066611C
:101E3C00696C65640046696C65204C697374696EE5
:101E4C0067003D3D3D3D3D3D3D3D3D3D3D3D3D3DC9
:101E5C003D3D3D3D3D3D3D3D3D3D00466F756E6418
:101E6C0020002046696C657300096E616D653A202F
:101E7C00000973697A653A2000456E7465722074A6
:101E8C007261636B2023000A506C6179696E672064
:101E9C00747261636B202300706C617900456E7401
:101EAC00657220747261636B206E616D65202866AB
:101EBC00756C6C2031322063686172616374657279
:101ECC00206E616D652129203E000A506C61796994
:101EDC006E6720747261636B2022005000566F6C29
:101EEC002075702E2E2E002B004661696C656420C7
:101EFC00746F2061646A75737400566F6C756D65D0
:101F0C003A2000566F6C20646F776E2E2E2E002DAB
:101F1C000050617573696E672E2E2E00556E7061C0
:101F2C007573696E672E2E2E0053746F7070696E08
:101F3C00672E2E2E007100547261636B2074696DD4
:101F4C00653A2000207365636F6E64730054726190
:101F5C00636B2073697A65202862797465732072CB
:101F6C00656D61696E696E672F746F74616C293A67
:101F7C0020002F004661696C656420746F20706CC2
:101F8C00617920747261636B3F004661696C6564B2
:101F9C0020746F207061757365004661696C6564AF
:101FAC0020746F20756E7061757365004661696C85
:101FBC00656420746F2073746F70004661696C6582
:101FCC006420746F2071756572790041646166726A
:101FDC0075697420465820536F756E6420426F618A
:041FEC00726400001B
:00000001FF
