:100000000C94B4000C94DC000C94DC000C94C90338
:100010000C94A5030C9481030C94DC000C94DC007C
:100020000C94DC000C94DC000C94DC000C94DC00E0
:100030000C94DC000C94DC000C94DC000C94DC00D0
:100040000C9479050C94DC000C9428040C94ED03BA
:100050000C94DC000C94DC000C94DC000C94DC00B0
:100060000C940C080C94DC00000000002400270015
:100070002A0000000007000201000003040600003F
:1000800000000000000000C201000100110011008A
:100090000C0000E100000A00250025002100009668
:1000A00000001900390039003600127A00001F00E4
:1000B0004600460044008070000022004D004D00C4
:1000C0004A00004B00003600750075007200403891
:1000D00000004A009C009C009900802500007200EE
:1000E000EC00EC00E900C0120000E900DA01DA01DE
:1000F000D70160090000D701B603B603B303B0040B
:100100000000B3036E076E076B07580200006E070E
:10011000DC0EDC0ED80E2C010000DC0EC11DC11D52
:10012000BE1D2D2D2D3E20000000000025002800C2
:100130002B00000000002300260029000404040412
:100140000404040402020202020203030303030381
:10015000010204081020408001020408102001025E
:1001600004081020C00B870B11241FBECFEFD8E06E
:10017000DEBFCDBF11E0A0E0B1E0E2E0FFE102C0F0
:1001800005900D92AC35B107D9F725E0ACE5B1E0AB
:1001900001C01D92A732B207E1F710E0C3EBD0E037
:1001A00004C02197FE010E946E0FC23BD107C9F720
:1001B0000E9443090C94C90C0C9400002091A401E6
:1001C0003091A5012817390739F48FB7F8941092A8
:1001D000A2011092A3018FBF08952091A401309134
:1001E000A5012817390771F48091A2012091A3017C
:1001F00090E0805C9F4F821B910960E470E00E9458
:10020000ED0E089580E090E008952091A4013091D2
:10021000A50128173907B9F49091A3018091A20193
:10022000981789F0E091A301F0E0EE59FE4F80812C
:100230002091A30130E02F5F3F4F2F73332720938E
:10024000A30190E008958FEF9FEF089520E00197BC
:100250002FEF8F3F9207D9F70895EF92FF920F93F8
:100260001F93CF93DF93C091A401D091A501209754
:1002700009F450C09B8DEE85FF858D8591FF04C0EC
:100280009081892329F446C09081892309F042C0D6
:100290008B899C890E94260188E0E82EF12C10E0D1
:1002A00001E08D899E890E942601EE85FF8590815F
:1002B0008D85892311F0102B03C0802F8095182382
:1002C000000F81E0E81AF10861F78F89988D0E948C
:1002D00026018B8D81FD10958091A2012091A301B3
:1002E00090E001968F73992730E08217930779F099
:1002F000E091A201F0E0EE59FE4F10838091A2013F
:1003000090E001968F7399278093A20103C08B8D93
:1003100081608B8FDF91CF911F910F91FF90EF90B4
:1003200008950F931F93CF93DF93FC01A685B785A4
:100330008D01005C1F4FE8018881998101968F73C0
:100340009927AD014E5B5F4FEA0128813981821701
:100350009307D1F3E80128813981A20FB31F6C9371
:10036000A685B785A05CBF4F11969C938E93A689F6
:10037000B7892C9181E090E0078C02C0880F991F0B
:100380000A94E2F7822B8C9381E081A30488F5899B
:10039000E02D80818064808381E090E0DF91CF91C7
:1003A0001F910F910895FC0181A1882329F0A48950
:1003B000B5898C9186FFFBCF11A20895FC01A4851D
:1003C000B585FD01E05CFF4F20813181329680814F
:1003D00091812817390779F080819181A80FB91F81
:1003E0008C91208131812F5F3F4F2F7333273183D1
:1003F000208390E008958FEF9FEF0895DC011C9615
:10040000ED91FC911D97DF01A05CBF4F2D913C91B8
:10041000119712968D919C9111972817390739F0F1
:100420008D919C91E80FF91F808190E008958FEFE6
:100430009FEF0895FC0124853585F901E05CFF4FAD
:1004400080819181329620813181821B930B8F7341
:100450009927089588E492E00C941A0208950F9366
:100460001F93CF93DF93EC01E881F9810190F08134
:10047000E02D6DE009958C01E881F9810190F08112
:10048000E02D6AE0CE010995800F911FDF91CF9199
:100490001F910F910895CF92DF92EF92FF920F93E9
:1004A0001F93CF93DF936C01EB017B01E40EF51EEC
:1004B00000E010E0CE15DF0561F06991D601ED9105
:1004C000FC910190F081E02DC6010995080F191FDC
:1004D000F1CFC801DF91CF911F910F91FF90EF9065
:1004E000DF90CF9008953FB7F89480915D0190918F
:1004F0005E01A0915F01B091600126B5A89B05C087
:100500002F3F19F00196A11DB11D3FBFBA2FA92F92
:10051000982F8827820F911DA11DB11DBC01CD010F
:1005200042E0660F771F881F991F4A95D1F70895FB
:10053000CF92DF92EF92FF92CF93DF936B017C011A
:100540000E947302EB01C114D104E104F10479F0BB
:100550000E9473026C1B7D0B683E7340A0F381E028
:10056000C81AD108E108F108C851DC4FECCFDF917F
:10057000CF91FF90EF90DF90CF900895DF92EF92B0
:10058000FF920F931F93CF93DF93EC01298D3A8D48
:100590002115310529F481E090E09B838A835AC0BC
:1005A000162FDFB6F8948B8D81FD4DC0CE010E94D1
:1005B0003709898D9A8D05960E9426018B8D98E0CA
:1005C000E92EF12C01E081FF1AC0802F812321F058
:1005D000CE010E94370906C0E989FA89908188898D
:1005E000892B8083898D9A8D0E942601000F81E0DE
:1005F000E81AF10851F7CE010E9437091CC0802F7C
:10060000812339F0E989FA8990818889892B80834F
:1006100003C0CE010E943709898D9A8D0E94260160
:10062000000F81E0E81AF10851F7E989FA89908111
:100630008889892B8083DFBE898D9A8D0E9426014F
:1006400021E030E007C0E989FA8990818889892B07
:100650008083AFCFC901DF91CF911F910F91FF90A0
:10066000EF90DF9008956115710579F0FB0101901D
:100670000020E9F73197AF01461B570BDC01ED91E4
:10068000FC910280F381E02D099480E090E00895D0
:100690000F931F93CF93DF93EC010E9433038C01E0
:1006A000CE010E942F02800F911FDF91CF911F91E9
:1006B0000F9108950F931F93CF93DF93EC018881DF
:1006C0009981009729F02A813B812617370788F402
:1006D0008B016F5F7F4F0E94F90D009761F0998346
:1006E00088831B830A832C813D81232B11F4FC0119
:1006F000108281E001C080E0DF91CF911F910F91C6
:1007000008951F920F920FB60F9211242F933F93CB
:100710004F935F936F937F938F939F93AF93BF9309
:10072000EF93FF930E942D01FF91EF91BF91AF9145
:100730009F918F917F916F915F914F913F912F91F9
:100740000F900FBE0F901F9018951F920F920FB62B
:100750000F9211242F933F934F935F936F937F9347
:100760008F939F93AF93BF93EF93FF930E942D01BD
:10077000FF91EF91BF91AF919F918F917F916F9179
:100780005F914F913F912F910F900FBE0F901F904F
:1007900018951F920F920FB60F9211242F933F932B
:1007A0004F935F936F937F938F939F93AF93BF9379
:1007B000EF93FF930E942D01FF91EF91BF91AF91B5
:1007C0009F918F917F916F915F914F913F912F9169
:1007D0000F900FBE0F901F9018951F920F920FB69B
:1007E0000F9211242F933F938F939F93EF93FF9337
:1007F0002091000230910102809102029091030247
:100800002817390731F48091C1008F7D8093C10092
:1008100014C0E0910202F0910302E054FE4F2081E7
:10082000809102029091030201968F739927909311
:100830000302809302022093C600FF91EF919F91E3
:100840008F913F912F910F900FBE0F901F90189591
:100850001F920F920FB60F9211242F934F935F9315
:100860008F939F93EF93FF938091C00082FD1CC0F4
:100870002091C600809144029091450201968F73A9
:10088000992740914602509147028417950771F0CD
:10089000E0914402F0914502EC5FFD4F208390937C
:1008A00045028093440202C08091C600FF91EF91FF
:1008B0009F918F915F914F912F910F900FBE0F904D
:1008C0001F901895EF92FF920F931F93CF93DF9392
:1008D000EC017B018A01BA010E945A032881398107
:1008E00081110DC02115310519F0C9010E94610D5A
:1008F000198218821D821C821B821A8206C01D83E7
:100900000C83B701C9010E94CC0ECE01DF91CF91BB
:100910001F910F91FF90EF90089590E0FC01EE5829
:10092000FF4F3491FC01E05BFE4F2491FC01E45C3D
:10093000FE4FE491EE2309F43BC0332339F1333009
:1009400091F038F43130A9F0323001F584B58F7D63
:1009500012C0363091F03730A1F03430B9F48091C4
:1009600080008F7D03C0809180008F77809380000E
:100970000DC084B58F7784BD09C08091B0008F779A
:1009800003C08091B0008F7D8093B000F0E0EE0F47
:10099000FF1FE85DFE4FA591B4918FB7F894EC91DD
:1009A000611103C020952E2301C02E2B2C938FBFE5
:1009B0000895CF93DF9390E0FC01E05BFE4F24911C
:1009C000FC01E45CFE4F8491882361F190E0880F84
:1009D000991FFC01E859FF4FC591D491FC01E85DD6
:1009E000FE4FA591B491611109C09FB7F894888119
:1009F000209582238883EC912E230BC0623061F412
:100A00009FB7F8943881822F809583238883EC9157
:100A10002E2B2C939FBF06C08FB7F894E8812E2B06
:100A200028838FBFDF91CF910895CF93DF93EC019F
:100A300061E0029709F060E087E00E948D0461E0C8
:100A4000219709F060E088E00E948D0461E089E070
:100A50000E94D904EBE7F0E0E491E33019F150F49F
:100A6000E130D1F0E230E1F584B5806284BD88ECFC
:100A700088BD3CC0E63011F1E73049F1E43081F542
:100A80008091800080628093800088EC90E0909359
:100A90008B0080938A002AC084B5806884BD88EC6E
:100AA00087BD24C08091800080688093800088EC9E
:100AB00090E0909389008093880018C08091B000E6
:100AC00080688093B00088EC8093B3000FC0809161
:100AD000B00080628093B00088EC8093B40006C0C0
:100AE00061E089E0DF91CF910C948D04DF91CF918B
:100AF00008951F920F920FB60F9211242F933F93D8
:100B00008F939F93AF93BF938091A6019091A7017C
:100B1000A091A801B091A90130915C0123E0230FBD
:100B20002D3720F40196A11DB11D05C026E8230F25
:100B30000296A11DB11D20935C018093A6019093A4
:100B4000A701A093A801B093A90180915D019091A4
:100B50005E01A0915F01B09160010196A11DB11DE0
:100B600080935D0190935E01A0935F01B09360015B
:100B7000BF91AF919F918F913F912F910F900FBE99
:100B80000F901F90189585ED8093BC008091BC005C
:100B900084FDFCCF1092AF0108950895E091AB0160
:100BA0008091AA01E81730F4F0E0E154FB4F808116
:100BB00090E008958FEF9FEF08959091AB018091A1
:100BC000AA01981750F4E92FF0E0E154FB4F20817F
:100BD00030E09F5F9093AB0102C02FEF3FEFC90160
:100BE00008958091AA0190E02091AB01821B9109A8
:100BF0000895CF92DF92EF92FF920F931F93CF93BE
:100C0000DF937C018A018091B001882389F0EB0198
:100C10006B01C40ED51ECC15DD05F1F06991D7012D
:100C2000ED91FC910190F081E02DC7010995F3CF82
:100C3000842F413288F49091AF01943069F440934D
:100C40009A04FB0128E734E0D9019A2F921B9817E8
:100C500018F491919D93F9CFC801DF91CF911F9125
:100C60000F91FF90EF90DF90CF9008952091B00109
:100C70002223C9F02091B301203240F021E030E07E
:100C8000FC013383228380E090E008958091B101DC
:100C9000E82FF0E0ED5FFA4F60838F5F8093B10142
:100CA0008093B30109C08091AF01843029F481E0C1
:100CB00080939A046093780481E090E00895AF9265
:100CC000BF92DF92EF92FF920F931F93CF93DF9328
:100CD0008C01D62EDC011696ED90FC901797E1144E
:100CE000F10449F15C01B9E5AB0EB11CF50180815D
:100CF000811114C0E2E2F1E06491EF0121966623D4
:100D000051F0D701ED91FC910190F081E02DC701E8
:100D10000995FE01F1CF81E0F5018083D801169697
:100D20008D919C911797DC01ED91FC910190F081E0
:100D3000E02D6D2D0995F80184819581DC01ED91FF
:100D4000FC910190F081E02D6D2DDF91CF911F91ED
:100D50000F91FF90EF90DF90BF90AF90099420919A
:100D6000A4013091A5012817390781F49091A301BE
:100D70008091A201981751F0E091A301F0E0EE59A3
:100D8000FE4F8081082E000C990B08958FEF9FEF86
:100D900008952091B3019091B201213208F046C02C
:100DA0008091AF018111FCCF32E03093AF0131E08F
:100DB0003093AE013FEF309302051092010520936E
:100DC0000005A3E0B5E040EE54E0FA013E2F341BED
:100DD000321718F43D913193F9CF1092DF0420912E
:100DE000DF04990F922B9093DF049091AD01913025
:100DF00041F41092AD019091DF049093BB0095EC0B
:100E000001C095EE9093BC009091AF019230E1F358
:100E1000909102059F3F79F080910205803241F068
:100E200080910205803331F084E005C081E003C089
:100E300082E001C083E01092B1011092B3011092E0
:100E4000B0010895CF93C62F9091AC01906221E03C
:100E50002093B0019093B2011092B1011092B301AE
:100E6000682F84EB91E00E9436066C2F84EB91E0B2
:100E70000E943606CF910C94C9069091AC01906205
:100E800021E02093B0019093B2011092B101109231
:100E9000B301682F84EB91E00E9436060E94C906D8
:100EA0008091AC019091AF019111FCCF91E09093B2
:100EB000AF019093AE012FEF209302051092010530
:100EC000109200059093DF049091DF048062880FF8
:100ED000892B8093DF048091AD01813041F4109221
:100EE000AD018091DF048093BB0085EC01C085EEED
:100EF0008093BC008091AF018130E1F380910105C6
:100F0000811103C08091010501C081E0A0EEB4E031
:100F10002FEB34E0F9019E2F921B981718F49D9146
:100F20009193F9CF1092AB018093AA0184EB91E0E9
:100F30000E94DD0508950F931F93CF93DF930091D7
:100F4000750210917602C0E0D0E02FB7F89480913E
:100F5000A6019091A701A091A801B091A9012FBF6E
:100F6000F80180879187A287B387D801ED91FC9122
:100F70000680F781E02DC801099597FD04C08A30ED
:100F80009105F9F427C02FB7F8948091A6019091AC
:100F9000A701A091A801B091A9012FBFF801408538
:100FA000518562857385841B950BA60BB70B448115
:100FB00055816681778184179507A607B707A8F240
:100FC00009C0FE01EF58FD4F81872196C035D1053C
:100FD00009F0BBCFFE01EF58FD4F118680917502DD
:100FE00090917602DC01ED91FC910084F185E02D79
:100FF00009950D9759F48091750290917602DC0164
:10100000ED91FC910680F781E02D0995CE01DF91ED
:10101000CF911F910F9108951F920F920FB60F92CB
:1010200011242F933F934F935F936F937F938F93ED
:101030009F93AF93BF93EF93FF938091B900887F05
:10104000803609F49CC068F5883209F45BC090F4DE
:10105000803109F454C038F4882309F4F3C088308F
:1010600009F44DC0F3C0883109F44CC0803209F452
:101070005DC0ECC0803409F468C048F4803309F4E2
:1010800055C0883309F0E2C080930205D5C0803591
:1010900009F44FC0883509F45DC0883409F0D6C022
:1010A000D3C0883909F4C4C0A8F4883709F467C0EC
:1010B00038F4883609F463C0803709F460C0C6C0CC
:1010C000883809F4B5C0803909F45FC0803809F068
:1010D000BDC05BC0803B09F483C038F4803A09F49A
:1010E00066C0883A09F47CC0B1C0803C09F4A4C051
:1010F000883C09F4A1C0883B09F487C0A7C080914F
:10110000DF0410C09091010580910005981770F5DB
:10111000E091010581E08E0F80930105F0E0E0523F
:10112000FB4F80818093BB0085EC83C080930205D8
:101130008BC0E091010581E08E0F809301058091C5
:10114000BB00F0E0E052FB4F80839091010580915D
:1011500000056BC0E091010581E08E0F80930105D1
:101160008091BB00F0E0E052FB4F80838091AE01A4
:1011700081116AC081E08093AD0184EA5EC083E0A2
:101180008093AF011092BE04CFCF8091BE04803215
:1011900008F04EC0E091BE0481E08E0F8093BE0443
:1011A0008091BB00F0E0E256FB4F8083BDCF809181
:1011B000BE04803230F4E091BE04F0E0E256FB4F12
:1011C00010820E94C3056091BE0470E0E0919C040F
:1011D000F0919D048EE994E009951092BE042CC014
:1011E00084E08093AF0110929B0410929A04E091E6
:1011F0009804F0919904099580919A04811105C091
:1012000081E080939A0410927804E0919B0481E03D
:101210008E0F80939B04F0E0E858FB4F8081809311
:10122000BB0090919B0480919A04981708F47CCF9E
:1012300085E88093BC000AC085EC8093BC001092C6
:10124000AF0104C0109202050E94C305FF91EF9107
:10125000BF91AF919F918F917F916F915F914F91CE
:101260003F912F910F900FBE0F901F901895DC01AA
:101270005196ED91FC915297908150968C9180956A
:10128000892380830895CF93DF93CDB7DEB7A197ED
:101290000FB6F894DEBF0FBECDBF789484B58260E0
:1012A00084BD84B5816084BD85B5826085BD85B50A
:1012B000816085BD80916E00816080936E00109288
:1012C0008100809181008260809381008091810003
:1012D0008160809381008091800081608093800094
:1012E0008091B10084608093B1008091B0008160F2
:1012F0008093B00080917A00846080937A0080911E
:101300007A00826080937A0080917A008160809375
:101310007A0080917A00806880937A001092C100F0
:101320001092760410927504109274041092730453
:1013300010927204109271041092700410926F0453
:1013400086E890E020E030E0FC0145915591659100
:101350007491403855426105710559F54CE0429F42
:10136000C001439F900D1124FC01E657FF4F2591CA
:1013700034913093700420936F04FC01E457FF4FC5
:10138000259134913093720420937104FC01E2574B
:10139000FF4F259134913093740420937304FC0122
:1013A000E057FF4F85919491909376048093750454
:1013B00007C02F5F3F4F0C962D30310509F0C4CF89
:1013C0008091730490917404892B09F446C0909124
:1013D00068049631E0F520916800983050F031E0D3
:1013E0009E3008F430E081E001C0880F3A95EAF7BA
:1013F00001C084E0822B80936800983038F09E30E2
:1014000040F0963148F4ECE6F0E008C0EDE6F0E09C
:1014100005C0EBE6F0E002C0E0E0F0E0408198308B
:1014200030F481E001C0880F9A95EAF70EC0292FA9
:1014300030E09E3018F42850310902C02E50310996
:1014400081E001C0880F2A95EAF7842B8083809180
:101450007504909176040E9426018091A4019091D8
:10146000A5018C55944091F0809177048E7F8093F4
:1014700077048FB7F8941092A2011092A3012CE583
:1014800034E03093A5012093A4018FBFE0915C026A
:10149000F0915D0281E090E09C010090680202C042
:1014A000220F331F0A94E2F72083E0915802F09153
:1014B00059021082E0915A02F0915B022FEC2083D6
:1014C00010926902E0915E02F0915F0240819C01FE
:1014D0000090640202C0220F331F0A94E2F7242B0B
:1014E0002083E0915E02F0915F0240819C010090B8
:1014F000650202C0220F331F0A94E2F7242B2083D7
:10150000E0915E02F0915F0240819C0100906602D2
:1015100002C0220F331F0A94E2F7242B2083E091AC
:101520005E02F0915F0220810090670202C0880F86
:10153000991F0A94E2F780958223808361E08DE011
:101540000E94D90460E08DE00E948D041092AC01ED
:101550001092AB011092AA011092B1011092B30146
:101560001092AF0181E08093AE011092AD0161E075
:1015700082E10E948D0461E083E10E948D048091EC
:10158000B9008E7F8093B9008091B9008D7F8093E0
:10159000B90088E48093B80085E48093BC006FEFC5
:1015A00080E00E9422076FEF81E00E94220710E096
:1015B000812C912C5401839401E0183008F400E050
:1015C000802F0E943D07912F97707501640104C020
:1015D000CC0CDD1CEE1CFF1C9A95D2F76C2D60958F
:1015E0006823802F0E942207183010F085E101C087
:1015F00084E10E943D07682F6C29183010F083E1C8
:1016000001C082E10E9422071F5F1031A9F61092EB
:10161000610160E0809179020E948D0461E0809117
:1016200079020E94D9046AE070E080E090E00E94B4
:10163000980260E0809179020E94D90468EE73E01C
:1016400080E090E00E9498020E949B070E949B0706
:101650006EE371E08AE792E00E94D30E892B09F4D1
:101660004CC06AEF70E080E090E00E9498020E9417
:101670009B070E949B0761E089E00E94D90461E01A
:1016800087E00E94D90461E088E00E94D904C090FC
:101690006101D12CE12CF12C19A28E010F5D1F4F9D
:1016A0008AE0882E912CA12CB12CC701B601A5018E
:1016B00094010E94010F8C2D9AE0299F801911241A
:1016C000015011098A3014F4805D01C0895CF80171
:1016D000808369017A01232B242B252B31F7B80154
:1016E00088E492E00E94330388E492E00E942F0293
:1016F0008FEF90E00E941505FFCF82E0809361019B
:1017000066E571E088E492E00E944803B4CF8091DE
:101710006A0290916B020E94610D82E391E09093C6
:101720005D0480935C0420916804263140F52830E4
:1017300028F02E3030F0ECE6F0E005C0EDE6F0E009
:1017400002C0EBE6F0E03081283038F481E090E030
:1017500001C0880F2A95EAF70FC0422F50E02E30C3
:1017600018F44850510902C04E50510981E090E0F0
:1017700001C0880F4A95EAF78095832380830895F6
:101780001092B7011092B60188EE93E0A0E0B0E0AD
:101790008093B8019093B901A093BA01B093BB01B3
:1017A0002AE031E03093B5012093B40110924B024E
:1017B00010924A0280934C0290934D02A0934E02E5
:1017C000B0934F022AE131E030934902209348025E
:1017D00024E032E0309355022093540220EC31E0B3
:1017E000309357022093560225EC30E03093590293
:1017F0002093580224EC30E030935B0220935A028D
:1018000020EC30E030935D0220935C0221EC30E06C
:1018100030935F0220935E0222EC30E0309361024D
:101820002093600226EC30E0309363022093620242
:1018300024E02093640223E02093650227E02093B4
:10184000660225E02093670221E02093680210924F
:101850005F0410925E048093600490936104A093EF
:101860006204B093630482E391E090935D048093FB
:101870005C041092700410926F0410927204109223
:1018800071041092740410927304109276041092F2
:101890007504809177048E7F8D7F8093770461E05B
:1018A00086E00E94D90461E086E00E948D04E6E5AE
:1018B000F1E0E491E0936C04E2E4F1E0E491F0E023
:1018C000EE0FFF1FE85DFE4F8591949190936E049B
:1018D00080936D0460E085E00E94D90480917704D4
:1018E00081FD04C061E085E00E948D0485E0809365
:1018F0006804E5E5F1E0E491E0936904E1E4F1E0F6
:10190000E491F0E0EE0FFF1FEE5CFE4F85919491A5
:1019100090936B0480936A04109274021092730285
:101920008AE291E090937202809371028CE594E0D8
:10193000909376028093750210927802109277024B
:1019400084E08093790284EF91E0A0E0B0E080939E
:10195000600490936104A0936204B09363041092B6
:10196000CA021092CB0210926B0210926A0210927D
:101970006D0210926C0210926F0210926E02109221
:10198000700240E050E06BE571E08AE692E00C9472
:101990006204F8940C94740FCF93DF938230910516
:1019A00010F482E090E0E0912505F091260520E01A
:1019B00030E0C0E0D0E0309711F14081518148170C
:1019C0005907C0F04817590761F482819381209725
:1019D00019F09B838A832BC090932605809325055D
:1019E00026C02115310519F04217530718F49A0142
:1019F000BE01DF01EF010280F381E02DDCCF211574
:101A0000310509F1281B390B2430310590F4129669
:101A10008D919C9113976115710521F0FB019383C2
:101A2000828304C09093260580932505FD0132969C
:101A300044C0FD01E20FF31F8193919322503109BD
:101A40002D933C933AC02091230530912405232BFC
:101A500041F4209102013091030130932405209339
:101A6000230520910001309101012115310541F438
:101A70002DB73EB74091040150910501241B350B51
:101A8000E0912305F0912405E217F307A0F42E1B43
:101A90003F0B2817390778F0AC014E5F5F4F2417D2
:101AA000350748F04E0F5F1F5093240540932305E0
:101AB0008193919302C0E0E0F0E0CF01DF91CF91FC
:101AC00008950F931F93CF93DF93009709F48CC071
:101AD000FC01329713821282009125051091260590
:101AE0000115110581F420813181820F931F20910E
:101AF0002305309124052817390779F5F09324053B
:101B0000E093230571C0D80140E050E0AE17BF0755
:101B100050F412962D913C911397AD01211531058A
:101B200009F1D901F3CF9D01DA013383228360816A
:101B30007181860F971F8217930769F4EC01288142
:101B40003981260F371F2E5F3F4F318320838A81D3
:101B50009B8193838283452B29F4F0932605E093A0
:101B6000250542C01396FC93EE931297ED0149911F
:101B700059919E01240F351FE217F30771F48081FC
:101B80009181840F951F029611969C938E9382816A
:101B9000938113969C938E931297E0E0F0E0D80126
:101BA00012968D919C911397009719F0F8018C0172
:101BB000F6CF8D919C9198012E5F3F4F820F931F1E
:101BC00020912305309124052817390769F43097AF
:101BD00029F4109226051092250502C01382128264
:101BE0001093240500932305DF91CF911F910F914E
:101BF0000895A0E0B0E0EFEFFDE00C94270FEC01BA
:101C0000009721F4CB010E94CC0CB8C0FC01E60F78
:101C1000F71F9C0122503109E217F30708F4ACC00A
:101C2000D9010D911C91119706171707B0F00530D7
:101C3000110508F49FC0C80104978617970708F498
:101C400099C002501109061B170B019311936D9354
:101C50007C93CF010E94610D8DC05B01A01AB10A77
:101C60004C01800E911EA0912505B091260540E003
:101C700050E0E12CF12C109709F44AC0A815B905E1
:101C8000D1F56D907C901197630182E0C80ED11C54
:101C9000CA14DB0480F1A3014A195B096A0182E0DE
:101CA000C80ED11C1296BC9012971396AC91B5E059
:101CB000CB16D10440F0B282A38351834083D90173
:101CC0006D937C930AC00E5F1F4FC301800F911F5D
:101CD000F90191838083EB2DFA2FE114F10431F0A7
:101CE000D7011396FC93EE93129744C0F093260508
:101CF000E09325053FC08D919C9111974817590796
:101D000008F4AC017D0112960D90BC91A02DB3CFCB
:101D1000809123059091240588159905E1F44617D3
:101D20005707C8F48091000190910101009741F498
:101D30008DB79EB74091040150910501841B950B0E
:101D4000E817F907C8F4F0932405E0932305F90197
:101D5000718360830FC0CB010E94CC0C7C01009783
:101D600059F0A801BE010E94C30ECE010E94610D70
:101D7000C70104C0CE0102C080E090E0CDB7DEB75D
:101D8000EEE00C94430FFB01DC0102C001900D92C8
:101D900041505040D8F70895FB01DC0101900D92AD
:101DA0000020E1F70895FB0151915523A9F0BF01EF
:101DB000DC014D9145174111E1F759F4CD01019036
:101DC000002049F04D9140154111C9F3FB0141112B
:101DD000EFCF81E090E00197089597FB072E16F46E
:101DE000009407D077FD09D00E945A0F07FC05D058
:101DF0003EF4909581959F4F0895709561957F4F22
:101E00000895A1E21A2EAA1BBB1BFD010DC0AA1F3B
:101E1000BB1FEE1FFF1FA217B307E407F50720F053
:101E2000A21BB30BE40BF50B661F771F881F991FCE
:101E30001A9469F760957095809590959B01AC0117
:101E4000BD01CF0108952F923F924F925F926F9202
:101E50007F928F929F92AF92BF92CF92DF92EF923A
:101E6000FF920F931F93CF93DF93CDB7DEB7CA1BBB
:101E7000DB0B0FB6F894DEBF0FBECDBF09942A88E6
:101E8000398848885F846E847D848C849B84AA848E
:101E9000B984C884DF80EE80FD800C811B81AA811B
:101EA000B981CE0FD11D0FB6F894DEBF0FBECDBFE6
:101EB000ED010895AA1BBB1B51E107C0AA1FBB1F60
:101EC000A617B70710F0A61BB70B881F991F5A95C6
:101ED000A9F780959095BC01CD010895EE0FFF1FE5
:101EE0000590F491E02D099410E0C3EBD0E004C01C
:101EF000FE010E946E0F2196C43BD107C9F7F894EA
:021F0000FFCF11
:101F0200000027052000000000003606F905F10553
:101F1200DD05CE05CD050000000091014B021A023D
:101F2200DE01FE01D301000000005F064B0200004B
:101F32000000BE024B02ED000501AF06DE00416467
:101F420061667275697420465820536F756E6420FD
:0C1F5200426F617264004552524F520011
:00000001FF
