:100000000C94BB000C9439030C940C030C94020860
:100010000C94DE070C94BA070C94E3000C94E300F4
:100020000C94E3000C94E3000C94E3000C94E300C4
:100030000C94E3000C94E3000C94E3000C94E300B4
:100040000C9472030C94E3000C94B5010C942608F4
:100050000C94E3000C94E3000C94E3000C94E30094
:100060000C94AF050C94E300A50CD30CB20EAB0DB1
:100070003D0E4D0E3E0D00000000240027002A001A
:1000800000C201000100110011000C0000E100009D
:100090000A00250025002100009600001900390003
:1000A00039003600127A00001F0046004600440066
:1000B0008070000022004D004D004A00004B0000FF
:1000C0003600750075007200403800004A009C0040
:1000D0009C009900802500007200EC00EC00E90013
:1000E000C0120000E900DA01DA01D701600900005E
:1000F000D701B603B603B303B0040000B3036E0721
:100100006E076B07580200006E07DC0EDC0ED80E7F
:100110002C010000DC0EC11DC11DBE1D2D2D2D3E6C
:100120002000000000070002010000030406000098
:1001300000000000000000000000250028002B0047
:100140000000000023002600290004040404040425
:100150000404020202020202030303030303010276
:100160000408102040800102040810200102040845
:100170001020FA0EC10E11241FBECFEFD8E0DEBF53
:10018000CDBF12E0A0E0B1E0EAE3F6E202C00590E4
:100190000D92AC31B107D9F726E0ACE1B2E001C075
:1001A0001D92A632B207E1F710E0CAEBD0E004C01E
:1001B0002197FE010E94BF12C93BD107C9F70E94D7
:1001C000400A0C9448100C94000008950F931F935C
:1001D000CF93DF93EC01E881F9810190F081E02D6C
:1001E0006DE009958C01E881F9810190F081E02DA5
:1001F0006AE0CE010995800F911FDF91CF911F9189
:100200000F910895CF92DF92EF92FF920F931F9379
:10021000CF93DF936C01EB017B01E40EF51E00E050
:1002200010E0CE15DF0561F06991D601ED91FC91EA
:100230000190F081E02DC6010995080F191FF1CF3B
:10024000C801DF91CF911F910F91FF90EF90DF9048
:10025000CF9008953FB7F8948091210290912202A7
:10026000A0912302B091240226B5A89B05C02F3F80
:1002700019F00196A11DB11D3FBFBA2FA92F982FCC
:100280008827820F911DA11DB11DBC01CD0142E047
:10029000660F771F881F991F4A95D1F70895CF924F
:1002A000DF92EF92FF92CF93DF936B017C010E946C
:1002B0002A01EB01C114D104E104F10479F00E9498
:1002C0002A016C1B7D0B683E7340A0F381E0C81AC5
:1002D000D108E108F108C851DC4FECCFDF91CF9194
:1002E000FF90EF90DF90CF90089581EF93E00C9412
:1002F0009F056115710579F0FB0101900020E9F778
:100300003197AF01461B570BDC01ED91FC91028048
:10031000F381E02D099480E090E008950F931F93FE
:10032000CF93DF93EC0188819981009729F02A818E
:100330003B812617370788F48B016F5F7F4F0E9440
:100340009511009761F0998388831B830A832C8120
:100350003D81232B11F4FC01108281E001C080E07B
:10036000DF91CF911F910F9108951F920F920FB6B9
:100370000F9211242F934F935F938F939F93EF933B
:10038000FF938091C00082FD1CC02091C600809127
:10039000ED039091EE0301968F7399274091EF033F
:1003A0005091F0038417950771F0E091ED03F091FF
:1003B000EE03E355FC4F20839093EE038093ED030F
:1003C00002C08091C600FF91EF919F918F915F9144
:1003D0004F912F910F900FBE0F901F9018950F9374
:1003E0001F93CF93DF93EC010E9479018C01CE0122
:1003F0000E94E600800F911FDF91CF911F910F9116
:100400000895EF92FF920F931F93CF93DF93EC0128
:100410007B018A01BA010E948E01288139818111F4
:100420000DC02115310519F0C9010E94FD10198276
:1004300018821D821C821B821A8206C01D830C83B7
:10044000B701C9010E946812CE01DF91CF911F91BF
:100450000F91FF90EF90089590E0FC01EE5DFE4F4C
:100460003491FC01E25AFE4F2491FC01E65BFE4F01
:10047000E491EE2309F43BC0332339F1333091F09A
:1004800038F43130A9F0323001F584B58F7D12C0D7
:10049000363091F03730A1F03430B9F480918000DB
:1004A0008F7D03C0809180008F77809380000DC086
:1004B00084B58F7784BD09C08091B0008F7703C069
:1004C0008091B0008F7D8093B000F0E0EE0FFF1FB1
:1004D000EA5CFE4FA591B4918FB7F894EC9161114D
:1004E00003C020952E2301C02E2B2C938FBF08957F
:1004F00088EC90E00E94BA0860E087E00E942C023D
:1005000061E088E00E942C0288EC92E0909328023F
:1005100080932702E9E6F0E08081837F8460808316
:10052000E99A08958130C9F488EC90E00E94BA08F5
:1005300061E087E00E942C0260E088E00E942C02CB
:1005400080EC92E0909326028093250280916900CE
:100550008C7F80936900E89A0895823011F40C949E
:10056000780281110CC080E090E00E94BA0860E03F
:1005700087E00E942C0260E088E00C942C02089531
:10058000E898109226021092250280E00C949202C4
:10059000E998109228021092270280E00C949202AF
:1005A000CF93DF9390E0FC01E25AFE4F2491FC01CF
:1005B000E65BFE4F8491882361F190E0880F991FDC
:1005C000FC01EA58FF4FC591D491FC01EA5CFE4F53
:1005D000A591B491611109C09FB7F89488812095C5
:1005E00082238883EC912E230BC0623061F49FB785
:1005F000F8943881822F809583238883EC912E2B69
:100600002C939FBF06C08FB7F894E8812E2B2883C8
:100610008FBFDF91CF9108951F920F920FB60F9267
:1006200011242F933F934F935F936F937F938F93F7
:100630009F93AF93BF93EF93FF9380912702909185
:100640002802892B29F0E0912702F09128020995D0
:10065000FF91EF91BF91AF919F918F917F916F919A
:100660005F914F913F912F910F900FBE0F901F9070
:1006700018951F920F920FB60F9211242F933F934C
:100680004F935F936F937F938F939F93AF93BF939A
:10069000EF93FF938091250290912602892B29F0F8
:1006A000E0912502F09126020995FF91EF91BF910B
:1006B000AF919F918F917F916F915F914F913F91FA
:1006C0002F910F900FBE0F901F9018952FB7F89491
:1006D00060911D0270911E0280911F029091200274
:1006E0002FBF08951F920F920FB60F9211242F93D0
:1006F0003F938F939F93AF93BF9380911D029091EF
:100700001E02A0911F02B091200230911C0223E032
:10071000230F2D3720F40196A11DB11D05C026E839
:10072000230F0296A11DB11D20931C0280931D0270
:1007300090931E02A0931F02B09320028091210289
:1007400090912202A0912302B09124020196A11D52
:10075000B11D8093210290932202A0932302B093B3
:100760002402BF91AF919F918F913F912F910F9054
:100770000FBE0F901F90189585ED8093BC0080915F
:10078000BC0084FDFCCF1092390308950895E091D8
:10079000F1028091F002E81730F4F0E0EE50FD4FE6
:1007A000808190E008958FEF9FEF08959091F1027E
:1007B0008091F002981750F4E92FF0E0EE50FD4FD1
:1007C000208130E09F5F9093F10202C02FEF3FEF56
:1007D000C90108958091F00290E02091F102821BFE
:1007E00091090895CF92DF92EF92FF920F931F939A
:1007F000CF93DF937C018A0180913A03882389F0AB
:10080000EB016B01C40ED51ECC15DD05F1F069912D
:10081000D701ED91FC910190F081E02DC701099580
:10082000F3CF842F413288F490913903943069F4E6
:100830004093CB02FB0129EA32E0D9019A2F921BA7
:10084000981718F491919D93F9CFC801DF91CF913A
:100850001F910F91FF90EF90DF90CF90089520911E
:100860003A032223C9F020915C03203240F021E0BA
:1008700030E0FC013383228380E090E00895809192
:100880003B03E82FF0E0E45CFC4F60838F5F8093D4
:100890003B0380935C0309C080913903843029F4C1
:1008A00081E08093CB026093A90281E090E00895FB
:1008B000AF92BF92DF92EF92FF920F931F93CF936D
:1008C000DF938C01D62EDC011696ED90FC901797E5
:1008D000E114F10449F15C01B9E5AB0EB11CF5017D
:1008E0008081811114C0ECE1F1E06491EF01219667
:1008F000662351F0D701ED91FC910190F081E02D3C
:10090000C7010995FE01F1CF81E0F5018083D8018F
:1009100016968D919C911797DC01ED91FC910190B9
:10092000F081E02D6D2D0995F80184819581DC0120
:10093000ED91FC910190F081E02D6D2DDF91CF9133
:100940001F910F91FF90EF90DF90BF90AF900994AF
:10095000DC015196ED91FC915297908150968C91CB
:1009600080958923808308952091670230916802E1
:100970002817390781F490916602809165029817D3
:1009800051F0E0916602F0E0E759FD4F8081082EBA
:10099000000C990B08958FEF9FEF08952091670247
:1009A000309168022817390739F48FB7F8941092FC
:1009B0006502109266028FBF089520916702309100
:1009C00068022817390771F4809165022091660248
:1009D00090E0805C9F4F821B910960E470E00E9470
:1009E0008912089580E090E0089520916702309187
:1009F000680228173907B9F4909166028091650260
:100A0000981789F0E0916602F0E0E759FD4F808188
:100A10002091660230E02F5F3F4F2F7333272093E2
:100A2000660290E008958FEF9FEF08950F931F9354
:100A3000CF93DF93FC01A685B7858D01005C1F4F26
:100A4000E8018881998101968F739927AD014E5BEA
:100A50005F4FEA012881398182179307D1F3E801BA
:100A600028813981A20FB31F6C93A685B785A05C3E
:100A7000BF4F11969C938E93A689B7892C9181E0E4
:100A800090E0078C02C0880F991F0A94E2F7822B2E
:100A90008C9381E081A30488F589E02D80818064B6
:100AA000808381E090E0DF91CF911F910F910895B5
:100AB000FC0181A1882329F0A489B5898C9186FF46
:100AC000FBCF11A20895FC01A485B585FD01E05C72
:100AD000FF4F20813181329680819181281739071B
:100AE00079F080819181A80FB91F8C91208131818B
:100AF0002F5F3F4F2F7333273183208390E008957A
:100B00008FEF9FEF0895DC011C96ED91FC911D97EE
:100B1000DF01A05CBF4F2D913C91119712968D91F2
:100B20009C9111972817390739F08D919C91E80F06
:100B3000F91F808190E008958FEF9FEF0895FC01E9
:100B400024853585F901E05CFF4F808191813296E3
:100B500020813181821B930B8F73992708951F92F7
:100B60000F920FB60F9211242F933F934F935F93E1
:100B70006F937F938F939F93AF93BF93EF93FF9365
:100B80008091B900887F803609F49CC068F588326E
:100B900009F45BC090F4803109F454C038F4882320
:100BA00009F4F3C0883009F44DC0F3C0883109F46A
:100BB0004CC0803209F45DC0ECC0803409F468C0D8
:100BC00048F4803309F455C0883309F0E2C08093BB
:100BD0003703D5C0803509F44FC0883509F45DC0AE
:100BE000883409F0D6C0D3C0883909F4C4C0A8F449
:100BF000883709F467C038F4883609F463C0803751
:100C000009F460C0C6C0883809F4B5C0803909F459
:100C10005FC0803809F0BDC05BC0803B09F483C071
:100C200038F4803A09F466C0883A09F47CC0B1C04F
:100C3000803C09F4A4C0883C09F4A1C0883B09F4B5
:100C400087C0A7C08091140310C090913603809193
:100C50003503981770F5E091360381E08E0F80938D
:100C60003603F0E0EB5EFC4F80818093BB0085ECA7
:100C700083C0809337038BC0E091360381E08E0FF1
:100C8000809336038091BB00F0E0EB5EFC4F8083E5
:100C900090913603809135036BC0E091360381E07B
:100CA0008E0F809336038091BB00F0E0EB5EFC4F2B
:100CB00080838091380381116AC081E0809313039F
:100CC00084EA5EC083E0809339031092EF02CFCFB5
:100CD0008091EF02803208F04EC0E091EF0281E097
:100CE0008E0F8093EF028091BB00F0E0E153FD4F47
:100CF0008083BDCF8091EF02803230F4E091EF022B
:100D0000F0E0E153FD4F10820E94BC036091EF02BE
:100D100070E0E091CD02F091CE028FEC92E0099567
:100D20001092EF022CC084E0809339031092CC0221
:100D30001092CB02E091C902F091CA02099580910C
:100D4000CB02811105C081E08093CB021092A902F1
:100D5000E091CC0281E08E0F8093CC02F0E0E75569
:100D6000FD4F80818093BB009091CC028091CB029B
:100D7000981708F47CCF85E88093BC000AC085EC06
:100D80008093BC001092390304C0109237030E9474
:100D9000BC03FF91EF91BF91AF919F918F917F9194
:100DA0006F915F914F913F912F910F900FBE0F90D8
:100DB0001F90189520E001972FEF8F3F9207D9F7EA
:100DC0000895DF92EF92FF920F931F93CF93DF93DB
:100DD000EC01298D3A8D2115310529F481E090E04F
:100DE0009B838A835AC0162FDFB6F8948B8D81FDC2
:100DF0004DC0CE010E94A804898D9A8D05960E944F
:100E0000DA068B8D98E0E92EF12C01E081FF1AC003
:100E1000802F812321F0CE010E94A80406C0E98919
:100E2000FA8990818889892B8083898D9A8D0E9487
:100E3000DA06000F81E0E81AF10851F7CE010E94AE
:100E4000A8041CC0802F812339F0E989FA89908198
:100E50008889892B808303C0CE010E94A804898DD4
:100E60009A8D0E94DA06000F81E0E81AF10851F726
:100E7000E989FA8990818889892B8083DFBE898DF1
:100E80009A8D0E94DA0621E030E007C0E989FA89EC
:100E900090818889892B8083AFCFC901DF91CF9161
:100EA0001F910F91FF90EF90DF900895EF92FF92C6
:100EB0000F931F93CF93DF93C0916702D091680285
:100EC000209709F450C09B8DEE85FF858D8591FF9D
:100ED00004C09081892329F446C09081892309F0B8
:100EE00042C08B899C890E94DA0688E0E82EF12CAA
:100EF00010E001E08D899E890E94DA06EE85FF856B
:100F000090818D85892311F0102B03C0802F80954F
:100F10001823000F81E0E81AF10861F78F89988D96
:100F20000E94DA068B8D81FD1095809165022091DB
:100F3000660290E001968F73992730E0821793073D
:100F400079F0E0916502F0E0E759FD4F1083809160
:100F5000650290E001968F7399278093650203C024
:100F60008B8D81608B8FDF91CF911F910F91FF90BF
:100F7000EF9008951F920F920FB60F9211242F93A6
:100F80003F934F935F936F937F938F939F93AF9311
:100F9000BF93EF93FF930E945607FF91EF91BF918C
:100FA000AF919F918F917F916F915F914F913F9101
:100FB0002F910F900FBE0F901F9018951F920F92B8
:100FC0000FB60F9211242F933F934F935F936F931C
:100FD0007F938F939F93AF93BF93EF93FF930E9461
:100FE0005607FF91EF91BF91AF919F918F917F91A4
:100FF0006F915F914F913F912F910F900FBE0F9086
:101000001F9018951F920F920FB60F9211242F93D5
:101010003F934F935F936F937F938F939F93AF9380
:10102000BF93EF93FF930E945607FF91EF91BF91FB
:10103000AF919F918F917F916F915F914F913F9170
:101040002F910F900FBE0F901F9018951F920F9227
:101050000FB60F9211242F933F938F939F93EF938B
:10106000FF932091A9033091AA038091AB03909143
:10107000AC032817390731F48091C1008F7D80932C
:10108000C10014C0E091AB03F091AC03E759FC4FF1
:1010900020818091AB039091AC0301968F739927C7
:1010A0009093AC038093AB032093C600FF91EF9124
:1010B0009F918F913F912F910F900FBE0F901F9096
:1010C000189520915C0390912106213208F046C0CA
:1010D000809139038111FCCF32E03093390331E044
:1010E000309338033FEF3093370310923603209349
:1010F0003503ACE3B3E045E153E0FA013E2F341B86
:10110000321718F43D913193F9CF109214032091C6
:101110001403990F922B9093140390911303913021
:1011200041F410921303909114039093BB0095EC3B
:1011300001C095EE9093BC00909139039230E1F399
:10114000909137039F3F79F080913703803241F0CF
:1011500080913703803331F084E005C081E003C023
:1011600082E001C083E010923B0310925C03109276
:101170003A030895CF93DF93EC0161E089E00E9488
:10118000D002209711F460E004C0CF3FD10531F4C4
:1011900061E089E0DF91CF910C942C02EBE2F1E069
:1011A000E491E330F9F048F4E130B9F0E230A1F530
:1011B00084B5806284BDC8BD34C0E630E9F0E73054
:1011C00019F1E43049F580918000806280938000BD
:1011D000D0938B00C0938A0024C084B5806884BDFE
:1011E000C7BD1FC080918000806880938000D0932D
:1011F0008900C093880015C08091B00080688093FA
:10120000B000C093B3000DC08091B00080628093A5
:10121000B000C093B40005C0C038D1050CF0B8CF01
:10122000B2CFDF91CF910895CF93C62F9091120343
:10123000906221E020933A039093210610923B03A1
:1012400010925C03682F8DE593E00E942F046C2FB1
:101250008DE593E00E942F04CF910C94610890914A
:101260001203906221E020933A039093210610929A
:101270003B0310925C03682F8DE593E00E942F04DE
:101280000E94610880911203909139039111FCCF63
:1012900091E090933903909338032FEF2093370315
:1012A0001092360310923503909314039091140317
:1012B0008062880F892B80931403809113038130FF
:1012C00041F410921303809114038093BB0085ECCA
:1012D00001C085EE8093BC00809139038130E1F339
:1012E00080913603811103C08091360301C081E0F3
:1012F000A5E1B3E022EF32E0F9019E2F921B98178F
:1013000018F49D919193F9CF1092F1028093F0021D
:101310008DE593E00E94D6030895CF92DF92EF927D
:10132000FF920F931F93CF93DF9300911E041091B0
:101330001F04C0E0D0E00E946603D80118966D93A8
:101340007D938D939C931B97D801ED91FC91068022
:10135000F781E02DC801099597FD04C08A309105F9
:10136000C1F41FC00E946603F801C084D184E284E6
:10137000F384DC01CB018C199D09AE09BF09C4803F
:10138000D580E680F7808C159D05AE05BF05E0F29F
:1013900008C0FE01E65EFB4F81872196C035D1056E
:1013A00051F6FE01E65EFB4F118680911E0490917E
:1013B0001F04DC01ED91FC910084F185E02D09957D
:1013C0000D9759F480911E0490911F04DC01ED915A
:1013D000FC910680F781E02D0995CE01DF91CF9138
:1013E0001F910F91FF90EF90DF90CF900895809123
:1013F0001E0490911F04DC01ED91FC910480F581A5
:10140000E02D0995A0911E04B0911F04892B49F08D
:10141000ED91FC9111970680F781E02DCD010995A2
:10142000E6CF6AE172E0CD010E94EF010E948D09D2
:1014300083E294E00E9403100895CF93DF93D82FA6
:10144000C92F20911203206281E080933A032093F8
:10145000210610923B0310925C0362E18DE593E05C
:101460000E942F046D2F8DE593E00E942F046C2FB6
:101470008DE593E00E942F04DF91CF910C946108D9
:10148000CF93DF93CDB7DEB7A1970FB6F894DEBF49
:101490000FBECDBF789484B5826084BD84B5816071
:1014A00084BD85B5826085BD85B5816085BD80912F
:1014B0006E00816080936E001092810080918100A7
:1014C000826080938100809181008160809381009F
:1014D000809180008160809380008091B100846061
:1014E0008093B1008091B00081608093B0008091C2
:1014F0007A00846080937A0080917A008260809381
:101500007A0080917A00816080937A0080917A00DD
:10151000806880937A001092C10010921F0610928A
:101520001E0610921D0610921C0610921B061092A9
:101530001A06109219061092180680E890E020E032
:1015400030E0FC01459155916591749140385542C8
:101550006105710559F54CE0429FC001439F900D14
:101560001124FC01EC57FF4F25913491309319065B
:1015700020931806FC01EA57FF4F259134913093D0
:101580001B0620931A06FC01E857FF4F2591349162
:1015900030931D0620931C06FC01E657FF4F8591F2
:1015A000949190931F0680931E0607C02F5F3F4FB4
:1015B0000C962D30310509F0C4CF80911C06909116
:1015C0001D06892B09F446C0909111069631E0F56D
:1015D00020916800983050F031E09E3008F430E0FF
:1015E00081E001C0880F3A95EAF701C084E0822BC0
:1015F00080936800983038F09E3040F0963148F47F
:10160000ECE6F0E008C0EDE6F0E005C0EBE6F0E067
:1016100002C0E0E0F0E04081983030F481E001C0A9
:10162000880F9A95EAF70EC0292F30E09E3018F403
:101630002850310902C02E50310981E001C0880FC5
:101640002A95EAF7842B808380911E0690911F06CD
:101650000E94DA0680916702909168028550964058
:1016600091F0809120068E7F809320068FB7F894AA
:10167000109265021092660225E036E0309368020F
:10168000209367028FBFE0910504F091060481E08A
:1016900090E09C010090110402C0220F331F0A94B5
:1016A000E2F72083E0910104F09102041082E091BE
:1016B0000304F09104042FEC208310921204E091B3
:1016C0000704F091080440819C0100900D0402C0C1
:1016D000220F331F0A94E2F7242B2083E0910704A2
:1016E000F091080440819C0100900E0402C0220F7A
:1016F000331F0A94E2F7242B2083E0910704F09132
:10170000080440819C0100900F0402C0220F331F87
:101710000A94E2F7242B2083E0910704F091080457
:1017200020810090100402C0880F991F0A94E2F7EC
:1017300080958223808361E08DE00E94D00260E08A
:101740008DE00E942C02109212031092F10210926E
:10175000F00210923B0310925C031092390381E077
:10176000809338031092130361E082E10E942C02FF
:1017700061E083E10E942C028091B9008E7F80930A
:10178000B9008091B9008D7F8093B90088E480937F
:10179000B80085E48093BC006FEF80E00E941409DC
:1017A0006FEF81E00E94140910E0812C912C54010C
:1017B000839401E0183008F400E0802F0E942F0984
:1017C000912F97707501640104C0CC0CDD1CEE1CD8
:1017D000FF1C9A95D2F76C2D60956823802F0E948C
:1017E0001409183010F085E101C084E10E942F092E
:1017F000682F6C29183010F083E101C082E10E944B
:1018000014091F5F1031A9F61092640260E0809104
:1018100022040E942C0261E0809122040E94D002E6
:101820006AE070E080E090E00E944F0160E080910B
:1018300022040E94D00268EE73E080E090E00E94F3
:101840004F010E948D090E948D096EEC71E083E2C8
:1018500094E00E946F12892B09F489C26AEF70E04C
:1018600080E090E00E944F010E948D090E948D0946
:101870000E94F70990E0873991050CF45FC08091D0
:101880001E0490911F04DC01ED91FC910480F58110
:10189000E02D0995A0911E04B0911F04892B49F0F9
:1018A000ED91FC9111970680F781E02DCD0109950E
:1018B000E6CF66EE71E0CD010E94EF010E948D0936
:1018C00083E294E00E940310992787399105BCF6C2
:1018D00060E087E00E942C0260E088E00E942C0219
:1018E00061E089E00E94D00261E087E00E94D002BE
:1018F00061E088E00E94D00288EC90E00E94BA0883
:1019000062E082E00E94D00262E083E00E94D002A6
:1019100068EE71E081EF93E00E94EF012AE0822EF1
:10192000912CA12CB12C32E0332E46E0442E5CE009
:10193000552E65E0762E73E0672E0FC0863991052F
:101940003CF60E94F70990E0F9CF81EF93E00E9406
:101950009F05892B71F40E947501E09164028E2F1E
:1019600090E087309105B8F7FC01EC5CFF4F0C94D8
:10197000BF1281EF93E00E946305833529F46092E2
:1019800064026EEE71E0E2C0843431F484E080934E
:10199000640263EF71E0DAC08835E9F670926402A0
:1019A00069EF71E0D3C000916302B8E00B9F800142
:1019B0001124F801ED5CFD4F6F01E480F580C70153
:1019C00080959095E7FE11C00E941D0A6CE271E0BF
:1019D00080E090E00E944F01C7018F77D6011596F5
:1019E0009C938E931497809590950E941D0AF80100
:1019F000ED5CFD4F828193818F3F910589F1589E67
:101A00008001599E100D112400501F4F80911E041B
:101A100090911F04DC01ED91FC910480F581E02D93
:101A20000995A0911E04B0911F04892B49F0ED91F6
:101A3000FC9111970680F781E02DCD010995E6CF45
:101A40006EEF71E0CD010E947901B80180911E0412
:101A500090911F040E94EF010E948D090E948D0940
:101A6000E0916302B8E0EB9FF0011124ED5CFD4FC3
:101A700086810E949202409264026DCF0E946603AA
:101A800060932F0270933002809331029093320260
:101A90004091630200912B0210912C0220912D02A3
:101AA00030912E026B017C01C01AD10AE20AF30ABE
:101AB00028E0429FF0011124ED5CFD4F208131812F
:101AC000890120E030E00C151D052E053F0508F0CA
:101AD00042CF60932B0270932C0280932D0290933F
:101AE0002E0281E0840F8093630280911E04909106
:101AF0001F04DC01ED91FC910480F581E02D099536
:101B0000A0911E04B0911F04892B49F0ED91FC9126
:101B100011970680F781E02DCD010995E6CF60E0B1
:101B200072E0CD010E9479010E948D0981E08093CD
:101B300064029091630280912A02981708F40BCFF7
:101B4000109263021092640262E072E081EF93E00F
:101B50000E94EF0100CF81EF93E00E949F05892B47
:101B600009F4F9CE81EF93E00E9463059C012053B4
:101B700031092A30310520F589831A820091170432
:101B8000109118040F5F1F4FB80183E194E00E9489
:101B90008E01882309F464C0209113043091140449
:101BA0008091170490911804BE016F5F7F4F820FE0
:101BB000931F0E946812109318040093170450C0DA
:101BC0008C32910561F5E0906302F12CD0902902EE
:101BD0000D2D10E08091130490911404009719F0DA
:101BE0000E94211003C060E070E0CB01F701EE0F0E
:101BF000FF1FEE0FFF1FE00FF11FEE0FFF1FED5C49
:101C0000FD4F71836083D394D092290240E050E06D
:101C10006BE172E083E194E00E94010221C084350F
:101C20009105B1F48091630280932A0210926302BD
:101C30000E94660360932B0270932C0280932D0206
:101C400090932E0281E08093640267E072E004C00A
:101C5000309264026CE072E081EF93E00E94EF0149
:101C600080912902843008F476CE809163028F5FE0
:101C700080936302109229026ECE60E084E00E949D
:101C80002C0261E084E00E942C021092640262E067
:101C900072E081EF93E00E94EF0181EF93E00E94F8
:101CA0009F05892B09F45EC081EF93E00E946305D4
:101CB0008634910549F481E00E94920281E00E94FD
:101CC000920262E172E009C08235910559F40E94E6
:101CD00078020E94780266E172E081EF93E00E9450
:101CE000EF013EC08635910571F50E94F709C82EB7
:101CF000D12CE12CF12C19A28E010F5D1F4FC701D1
:101D0000B601A50194010E949D128C2DBAE02B9F73
:101D100080191124015011098A3014F4805D01C02A
:101D2000895CF801808369017A01232B242B252B00
:101D300031F7B80181EF93E00E94790181EF93E0E0
:101D40000E94E6000DC08434910519F48BEF9FEFDB
:101D500005C08F34910531F48FEF9FEF0E941D0A6B
:101D60001092640261E08DE00E942C02F4CD82E0CA
:101D7000809364026CE072E081EF93E00E94EF01D7
:101D800077CD80911304909114040E94FD1082EC91
:101D900091E0909306068093050620911106263166
:101DA00040F5283028F02E3030F0ECE6F0E005C0A9
:101DB000EDE6F0E002C0EBE6F0E03081283038F4E8
:101DC00081E090E001C0880F2A95EAF70FC0422F0A
:101DD00050E02E3018F44850510902C04E505109BD
:101DE00081E090E001C0880F4A95EAF7809583234F
:101DF000808308951092600310925F0388EE93E051
:101E0000A0E0B0E08093610390936203A09363032A
:101E1000B09364032AE931E030935E0320935D03BD
:101E20001092F4031092F3038093F5039093F6035A
:101E3000A093F703B093F8032AEA31E03093F2035A
:101E40002093F1032DEA33E03093FE032093FD034A
:101E500029E633E0309300042093FF0325EC30E0C3
:101E6000309302042093010424EC30E03093040406
:101E70002093030420EC30E0309306042093050403
:101E800021EC30E0309308042093070422EC30E08A
:101E900030930A042093090426EC30E030930C04BC
:101EA00020930B0424E020930D0423E020930E04E0
:101EB00027E020930F0425E02093100421E02093D5
:101EC0001104109208061092070680930906909359
:101ED0000A06A0930B06B0930C0682EC91E0909357
:101EE00006068093050610921906109218061092A5
:101EF0001B0610921A0610921D0610921C061092D4
:101F00001F0610921E06809120068E7F8D7F809383
:101F1000200661E086E00E94D00261E086E00E9437
:101F20002C02E4E6F1E0E491E0931506E0E5F1E04F
:101F3000E491F0E0EE0FFF1FEA5CFE4F8591949173
:101F4000909317068093160660E085E00E94D00209
:101F50008091200681FD04C061E085E00E942C0292
:101F600085E080931106E3E6F1E0E491E093120648
:101F7000EFE4F1E0E491F0E0EE0FFF1FE05CFE4FD4
:101F800085919491909314068093130610921D04EA
:101F900010921C048AEB91E090931B0480931A0426
:101FA00085E096E090931F0480931E041092210414
:101FB0001092200484E08093220484EF91E0A0E05A
:101FC000B0E08093090690930A06A0930B06B093A5
:101FD0000C06109273041092740410921404109260
:101FE0001304109216041092150410921804109203
:101FF00017041092190440E050E06BE172E083E1B5
:1020000094E00C940102FC0188279927E89421911F
:102010002032E9F3293010F02E30C8F32B3241F092
:102020002D3239F4689404C00E946010820F911D13
:10203000219120532A30C0F31EF4909581959F4F33
:1020400008951F93FC0199278827BC01E8941191FA
:102050001032E9F3193010F01E30C8F31B3251F082
:102060001D3249F4689406C00E944B10610F711D27
:10207000811D911D119110531A30B0F33EF49095CB
:102080008095709561957F4F8F4F9F4F1F91089559
:10209000F8940C941013592F482F372F262F660FC2
:1020A000771F881F991F660F771F881F991F620F60
:1020B000731F841F951F660F771F881F991F089530
:1020C0007AE0979F902D879F802D910D1124089580
:1020D000CF93DF938230910510F482E090E0E0919D
:1020E0002406F091250620E030E0C0E0D0E03097F3
:1020F00011F14081518148175907C0F0481759071D
:1021000061F482819381209719F09B838A832BC08D
:10211000909325068093240626C02115310519F0D9
:102120004217530718F49A01BE01DF01EF01028044
:10213000F381E02DDCCF2115310509F1281B390B86
:102140002430310590F412968D919C91139761156E
:10215000710521F0FB019383828304C090932506CF
:1021600080932406FD01329644C0FD01E20FF31F67
:1021700081939193225031092D933C933AC0209141
:10218000220630912306232B41F4209192013091B5
:1021900093013093230620932206209190013091E1
:1021A00091012115310541F42DB73EB740919401BD
:1021B00050919501241B350BE0912206F0912306E6
:1021C000E217F307A0F42E1B3F0B2817390778F00E
:1021D000AC014E5F5F4F2417350748F04E0F5F1F6D
:1021E00050932306409322068193919302C0E0E02E
:1021F000F0E0CF01DF91CF9108950F931F93CF931C
:10220000DF93009709F48CC0FC013297138212828D
:1022100000912406109125060115110581F42081F5
:102220003181820F931F20912206309123062817B7
:10223000390779F5F0932306E093220671C0D8019F
:1022400040E050E0AE17BF0750F412962D913C913C
:102250001397AD012115310509F1D901F3CF9D0186
:10226000DA013383228360817181860F971F821781
:10227000930769F4EC0128813981260F371F2E5FFF
:102280003F4F318320838A819B8193838283452BB7
:1022900029F4F0932506E093240642C01396FC939C
:1022A000EE931297ED01499159919E01240F351F2C
:1022B000E217F30771F480819181840F951F0296D4
:1022C00011969C938E938281938113969C938E9307
:1022D0001297E0E0F0E0D80112968D919C9113974F
:1022E000009719F0F8018C01F6CF8D919C9198011F
:1022F0002E5F3F4F820F931F2091220630912306BD
:102300002817390769F4309729F41092250610929E
:10231000240602C013821282109323060093220621
:10232000DF91CF911F910F910895A0E0B0E0EBE90C
:10233000F1E10C94C912EC01009721F4CB010E9449
:102340006810B8C0FC01E60FF71F9C01225031094C
:10235000E217F30708F4ACC0D9010D911C91119755
:1023600006171707B0F00530110508F49FC0C80123
:1023700004978617970708F499C002501109061BA5
:10238000170B019311936D937C93CF010E94FD1065
:102390008DC05B01A01AB10A4C01800E911EA09164
:1023A0002406B091250640E050E0E12CF12C109776
:1023B00009F44AC0A815B905D1F56D907C90119724
:1023C000630182E0C80ED11CCA14DB0480F1A301B2
:1023D0004A195B096A0182E0C80ED11C1296BC90B2
:1023E00012971396AC91B5E0CB16D10440F0B282AF
:1023F000A38351834083D9016D937C930AC00E5F00
:102400001F4FC301800F911FF90191838083EB2D32
:10241000FA2FE114F10431F0D7011396FC93EE93F7
:10242000129744C0F0932506E09324063FC08D9197
:102430009C9111974817590708F4AC017D01129639
:102440000D90BC91A02DB3CF8091220690912306D0
:1024500088159905E1F446175707C8F48091900153
:1024600090919101009741F48DB79EB740919401EE
:1024700050919501841B950BE817F907C8F4F09368
:102480002306E0932206F901718360830FC0CB011C
:102490000E9468107C01009759F0A801BE010E94BB
:1024A0005F12CE010E94FD10C70104C0CE0102C020
:1024B00080E090E0CDB7DEB7EEE00C94E512FB01D2
:1024C000DC0102C001900D9241505040D8F70895B0
:1024D000FB01DC0101900D920020E1F70895FB0162
:1024E00051915523A9F0BF01DC014D9145174111D0
:1024F000E1F759F4CD010190002049F04D914015CC
:102500004111C9F3FB014111EFCF81E090E0019748
:10251000089597FB072E16F4009407D077FD09D095
:102520000E94FC1207FC05D03EF4909581959F4FC8
:102530000895709561957F4F0895A1E21A2EAA1B08
:10254000BB1BFD010DC0AA1FBB1FEE1FFF1FA21763
:10255000B307E407F50720F0A21BB30BE40BF50B60
:10256000661F771F881F991F1A9469F760957095E9
:10257000809590959B01AC01BD01CF010895EE0FB0
:10258000FF1F0590F491E02D09942F923F924F92F6
:102590005F926F927F928F929F92AF92BF92CF92F3
:1025A000DF92EF92FF920F931F93CF93DF93CDB7FC
:1025B000DEB7CA1BDB0B0FB6F894DEBF0FBECDBF74
:1025C00009942A88398848885F846E847D848C8445
:1025D0009B84AA84B984C884DF80EE80FD800C814E
:1025E0001B81AA81B981CE0FD11D0FB6F894DEBF31
:1025F0000FBECDBFED010895AA1BBB1B51E107C063
:10260000AA1FBB1FA617B70710F0A61BB70B881F82
:10261000991F5A95A9F780959095BC01CD01089511
:1026200010E0CAEBD0E004C0FE010E94BF12219668
:0A263000CB3BD107C9F7F894FFCFA8
:10263A004C4F4F4E592020204F4747004259415294
:10264A00442020204F474700435241434B2020203B
:10265A004F47470049434543202020204F47470022
:10266A004C4F4E45202020204F4747004D4C494EA5
:10267A00472020204F4747004D5443202020202048
:10268A004F4747004E45574D432020204F474700AC
:10269A000000000000000000000000000000000030
:1026AA000000000000000000000000000000000020
:1026BA000000000000000000000000000000000010
:1026CA00000026062000000000002F04F203EA039F
:1026DA00D603C703C60300000000160502019F05C2
:1026EA006305830558050000000058040201000034
:1026FA000000E1060201DD04F504B404CE044164DD
:10270A0061667275697420465820536F756E64202D
:10271A00426F617264002D0052454144590052458E
:10272A004144004452495645005445535400500010
:10273A00710049444C4500504C4159004552524F92
:0C274A005200464F5200524556002B0032
:00000001FF
