:100000000C94B4000C94DC000C94DC000C94A2035F
:100010000C947E030C945A030C94DC000C94DC00CA
:100020000C94DC000C94DC000C94DC000C94DC00E0
:100030000C94DC000C94DC000C94DC000C94DC00D0
:100040000C9415050C94DC000C9401040C94C6036C
:100050000C94DC000C94DC000C94DC000C94DC00B0
:100060000C94E3070C94DC0000000000240027003F
:100070002A0000C201000100110011000C0000E183
:1000800000000A002500250021000096000019004C
:10009000390039003600127A00001F004600460081
:1000A00044008070000022004D004D004A00004BCB
:1000B00000003600750075007200403800004A00EC
:1000C0009C009C009900802500007200EC00EC0070
:1000D000E900C0120000E900DA01DA01D701600985
:1000E0000000D701B603B603B303B0040000B303A6
:1000F0006E076E076B07580200006E07DC0EDC0E01
:10010000D80E2C010000DC0EC11DC11DBE1D00005B
:1001100000070002010000030406000000000000C8
:1001200000002D2D2D3E200000000000250028009D
:100130002B00000000002300260029000404040412
:100140000404040402020202020203030303030381
:10015000010204081020408001020408102001025E
:1001600004081020970B5E0B11241FBECFEFD8E0C0
:10017000DEBFCDBF11E0A0E0B1E0E0EBFEE102C0E8
:1001800005900D92A43FB107D9F725E0A4EFB1E0A7
:1001900001C01D92AF3BB207E1F710E0C3EBD0E026
:1001A00004C02197FE010E94450FC23BD107C9F749
:1001B0000E941A090C94A00C0C94000020913C029F
:1001C00030913D022817390739F48FB7F89410920F
:1001D0003A0210923B028FBF089520913C02309169
:1001E0003D022817390771F480913A0220913B02B1
:1001F00090E0805C9F4F821B910960E470E00E9458
:10020000C40E089580E090E0089520913C02309162
:100210003D0228173907B9F490913B0280913A02C8
:10022000981789F0E0913B02F0E0E650FE4F8081A4
:1002300020913B0230E02F5F3F4F2F7333272093F5
:100240003B0290E008958FEF9FEF089520E0019723
:100250002FEF8F3F9207D9F70895EF92FF920F93F8
:100260001F93CF93DF93C0913C02D0913D02209722
:1002700009F450C09B8DEE85FF858D8591FF04C0EC
:100280009081892329F446C09081892309F042C0D6
:100290008B899C890E94260188E0E82EF12C10E0D1
:1002A00001E08D899E890E942601EE85FF8590815F
:1002B0008D85892311F0102B03C0802F8095182382
:1002C000000F81E0E81AF10861F78F89988D0E948C
:1002D00026018B8D81FD109580913A0220913B0281
:1002E00090E001968F73992730E08217930779F099
:1002F000E0913A02F0E0E650FE4F108380913A021E
:1003000090E001968F73992780933A0203C08B8DFA
:1003100081608B8FDF91CF911F910F91FF90EF90B4
:1003200008950F931F93CF93DF93FC01A685B785A4
:100330008D01005C1F4FE8018881998101968F73C0
:100340009927AD014E5B5F4FEA0128813981821701
:100350009307D1F3E80128813981A20FB31F6C9371
:10036000A685B785A05CBF4F11969C938E93A689F6
:10037000B7892C9181E090E0078C02C0880F991F0B
:100380000A94E2F7822B8C9381E081A30488F5899B
:10039000E02D80818064808381E090E0DF91CF91C7
:1003A0001F910F910895FC0181A1882329F0A48950
:1003B000B5898C9186FFFBCF11A20895FC01A4851D
:1003C000B585FD01E05CFF4F20813181329680814F
:1003D00091812817390779F080819181A80FB91F81
:1003E0008C91208131812F5F3F4F2F7333273183D1
:1003F000208390E008958FEF9FEF0895DC011C9615
:10040000ED91FC911D97DF01A05CBF4F2D913C91B8
:10041000119712968D919C9111972817390739F0F1
:100420008D919C91E80FF91F808190E008958FEFE6
:100430009FEF0895FC0124853585F901E05CFF4FAD
:1004400080819181329620813181821B930B8F7341
:100450009927089580EE92E00C941A0208950F9364
:100460001F93CF93DF93EC01E881F9810190F08134
:10047000E02D6DE009958C01E881F9810190F08112
:10048000E02D6AE0CE010995800F911FDF91CF9199
:100490001F910F910895CF92DF92EF92FF920F93E9
:1004A0001F93CF93DF936C01EB017B01E40EF51EEC
:1004B00000E010E0CE15DF0561F06991D601ED9105
:1004C000FC910190F081E02DC6010995080F191FDC
:1004D000F1CFC801DF91CF911F910F91FF90EF9065
:1004E000DF90CF9008953FB7F8948091F5019091F7
:1004F000F601A091F701B091F80126B5A89B05C0BF
:100500002F3F19F00196A11DB11D3FBFBA2FA92F92
:10051000982F8827820F911DA11DB11DBC01CD010F
:1005200042E0660F771F881F991F4A95D1F70895FB
:10053000CF92DF92EF92FF92CF93DF936B017C011A
:100540000E947302EB01C114D104E104F10479F0BB
:100550000E9473026C1B7D0B683E7340A0F381E028
:10056000C81AD108E108F108C851DC4FECCFDF917F
:10057000CF91FF90EF90DF90CF900895DF92EF92B0
:10058000FF920F931F93CF93DF93EC01298D3A8D48
:100590002115310529F481E090E09B838A835AC0BC
:1005A000162FDFB6F8948B8D81FD4DC0CE010E94D1
:1005B0000E09898D9A8D05960E9426018B8D98E0F3
:1005C000E92EF12C01E081FF1AC0802F812321F058
:1005D000CE010E940E0906C0E989FA8990818889B6
:1005E000892B8083898D9A8D0E942601000F81E0DE
:1005F000E81AF10851F7CE010E940E091CC0802FA5
:10060000812339F0E989FA8990818889892B80834F
:1006100003C0CE010E940E09898D9A8D0E94260189
:10062000000F81E0E81AF10851F7E989FA89908111
:100630008889892B8083DFBE898D9A8D0E9426014F
:1006400021E030E007C0E989FA8990818889892B07
:100650008083AFCFC901DF91CF911F910F91FF90A0
:10066000EF90DF9008950F931F93CF93DF93EC01EA
:1006700088819981009729F02A813B8126173707C5
:1006800088F48B016F5F7F4F0E94D00D009761F05F
:10069000998388831B830A832C813D81232B11F44A
:1006A000FC01108281E001C080E0DF91CF911F91B9
:1006B0000F9108951F920F920FB60F9211242F934E
:1006C0003F934F935F936F937F938F939F93AF93DA
:1006D000BF93EF93FF930E942D01FF91EF91BF9184
:1006E000AF919F918F917F916F915F914F913F91CA
:1006F0002F910F900FBE0F901F9018951F920F9281
:100700000FB60F9211242F933F934F935F936F93E4
:100710007F938F939F93AF93BF93EF93FF930E9429
:100720002D01FF91EF91BF91AF919F918F917F919B
:100730006F915F914F913F912F910F900FBE0F904E
:100740001F9018951F920F920FB60F9211242F939E
:100750003F934F935F936F937F938F939F93AF9349
:10076000BF93EF93FF930E942D01FF91EF91BF91F3
:10077000AF919F918F917F916F915F914F913F9139
:100780002F910F900FBE0F901F9018951F920F92F0
:100790000FB60F9211242F933F938F939F93EF9354
:1007A000FF93209198023091990280919A02909142
:1007B0009B022817390731F48091C1008F7D809307
:1007C000C10014C0E0919A02F0919B02E85AFD4FDB
:1007D000208180919A0290919B0201968F739927B4
:1007E00090939B0280939A022093C600FF91EF9111
:1007F0009F918F913F912F910F900FBE0F901F905F
:1008000018951F920F920FB60F9211242F934F93AA
:100810005F938F939F93EF93FF938091C00082FD2E
:100820001CC02091C6008091DC029091DD020196EF
:100830008F7399274091DE025091DF02841795074C
:1008400071F0E091DC02F091DD02E456FD4F20836F
:100850009093DD028093DC0202C08091C600FF917C
:10086000EF919F918F915F914F912F910F900FBEBC
:100870000F901F9018956115710579F0FB0101909B
:100880000020E9F73197AF01461B570BDC01ED91D2
:10089000FC910280F381E02D099480E090E00895BE
:1008A0000F931F93CF93DF93EC010E943B048C01C5
:1008B000CE010E942F02800F911FDF91CF911F91D7
:1008C0000F910895EF92FF920F931F93CF93DF93B1
:1008D000EC017B018A01BA010E943303288139812E
:1008E00081110DC02115310519F0C9010E94380D83
:1008F000198218821D821C821B821A8206C01D83E7
:100900000C83B701C9010E94A30ECE01DF91CF91E4
:100910001F910F91FF90EF90089590E0FC01E25F2E
:10092000FE4F3491FC01E05BFE4F2491FC01E45C3E
:10093000FE4FE491EE2309F43BC0332339F1333009
:1009400091F038F43130A9F0323001F584B58F7D63
:1009500012C0363091F03730A1F03430B9F48091C4
:1009600080008F7D03C0809180008F77809380000E
:100970000DC084B58F7784BD09C08091B0008F779A
:1009800003C08091B0008F7D8093B000F0E0EE0F47
:10099000FF1FE85DFE4FA591B4918FB7F894EC91DD
:1009A000611103C020952E2301C02E2B2C938FBFE5
:1009B0000895CF93DF9390E0FC01E05BFE4F24911C
:1009C000FC01E45CFE4F8491882361F190E0880F84
:1009D000991FFC01E859FF4FC591D491FC01E85DD6
:1009E000FE4FA591B491611109C09FB7F894888119
:1009F000209582238883EC912E230BC0623061F412
:100A00009FB7F8943881822F809583238883EC9157
:100A10002E2B2C939FBF06C08FB7F894E8812E2B06
:100A200028838FBFDF91CF9108951F920F920FB649
:100A30000F9211242F933F938F939F93AF93BF9364
:100A400080913E0290913F02A0914002B0914102FC
:100A50003091F40123E0230F2D3720F40196A11DDE
:100A6000B11D05C026E8230F0296A11DB11D2093DC
:100A7000F40180933E0290933F02A0934002B09312
:100A800041028091F5019091F601A091F701B0919A
:100A9000F8010196A11DB11D8093F5019093F60117
:100AA000A093F701B093F801BF91AF919F918F91FF
:100AB0003F912F910F900FBE0F901F90189585EDCD
:100AC0008093BC008091BC0084FDFCCF1092470253
:100AD00008950895E091430280914202E81730F4AE
:100AE000F0E0E95AFA4F808190E008958FEF9FEF90
:100AF00008959091430280914202981750F4E92F93
:100B0000F0E0E95AFA4F208130E09F5F9093430272
:100B100002C02FEF3FEFC90108958091420290E09B
:100B200020914302821B91090895CF92DF92EF92A8
:100B3000FF920F931F93CF93DF937C018A018091E3
:100B40004802882389F0EB016B01C40ED51ECC1539
:100B5000DD05F1F06991D701ED91FC910190F081F3
:100B6000E02DC7010995F3CF842F413288F490918D
:100B70004702943069F440933205FB0120E135E0EF
:100B8000D9019A2F921B981718F491919D93F9CF40
:100B9000C801DF91CF911F910F91FF90EF90DF90EF
:100BA000CF900895209148022223C9F020914B0252
:100BB000203240F021E030E0FC013383228380E0EA
:100BC00090E0089580914902E82FF0E0E556FA4F51
:100BD00060838F5F8093490280934B0209C08091AC
:100BE0004702843029F481E0809332056093100538
:100BF00081E090E00895AF92BF92DF92EF92FF9272
:100C00000F931F93CF93DF938C01D62EDC011696A2
:100C1000ED90FC901797E114F10449F15C01B9E5FE
:100C2000AB0EB11CF5018081811114C0E2E2F1E04C
:100C30006491EF012196662351F0D701ED91FC916B
:100C40000190F081E02DC7010995FE01F1CF81E00F
:100C5000F5018083D80116968D919C911797DC0140
:100C6000ED91FC910190F081E02D6D2D0995F80139
:100C700084819581DC01ED91FC910190F081E02D62
:100C80006D2DDF91CF911F910F91FF90EF90DF902D
:100C9000BF90AF90099420913C0230913D022817FB
:100CA000390781F490913B0280913A02981751F0F4
:100CB000E0913B02F0E0E650FE4F8081082E000CF0
:100CC000990B08958FEF9FEF089520914B0290911B
:100CD0004A02213208F046C0809147028111FCCFC0
:100CE00032E03093470231E0309346023FEF3093D9
:100CF0009A051092990520939805ABE9B5E048E76D
:100D000055E0FA013E2F341B321718F43D91319310
:100D1000F9CF1092770520917705990F922B909338
:100D2000770590914502913041F4109245029091DF
:100D300077059093BB0095EC01C095EE9093BC00B5
:100D4000909147029230E1F390919A059F3F79F09C
:100D500080919A05803241F080919A05803331F07C
:100D600084E005C081E003C082E001C083E010920E
:100D7000490210924B02109248020895CF93C62F59
:100D800090914402906221E02093480290934A029D
:100D90001092490210924B02682F8CE492E00E945C
:100DA000D2056C2F8CE492E00E94D205CF910C9476
:100DB000650690914402906221E02093480290934E
:100DC0004A021092490210924B02682F8CE492E082
:100DD0000E94D2050E9465068091440290914702CC
:100DE0009111FCCF91E090934702909346022FEF30
:100DF00020939A0510929905109298059093770583
:100E0000909177058062880F892B80937705809178
:100E10004502813041F4109245028091770580931C
:100E2000BB0085EC01C085EE8093BC008091470239
:100E30008130E1F380919905811103C0809199057A
:100E400001C081E0A8E7B5E027E535E0F9019E2F74
:100E5000921B981718F49D919193F9CF1092430229
:100E6000809342028CE492E00E94790508950F93EA
:100E70001F93CF93DF9300910D0310910E03C0E0F9
:100E8000D0E02FB7F89480913E0290913F02A0915C
:100E90004002B09141022FBFF80180879187A2875D
:100EA000B387D801ED91FC910680F781E02DC80150
:100EB000099597FD04C08A309105F9F427C02FB732
:100EC000F89480913E0290913F02A0914002B0912F
:100ED00041022FBFF8014085518562857385841BCF
:100EE000950BA60BB70B44815581668177818417DA
:100EF0009507A607B707A8F209C0FE01E75FFC4FF8
:100F000081872196C035D10509F0BBCFFE01E75F8F
:100F1000FC4F118680910D0390910E03DC01ED9141
:100F2000FC910084F185E02D09950D9759F480918D
:100F30000D0390910E03DC01ED91FC910680F78189
:100F4000E02D0995CE01DF91CF911F910F9108956A
:100F5000CF93DF93EC0180910D0390910E03DC01A0
:100F6000ED91FC910480F581E02D0995A0910D0390
:100F7000B0910E03892B49F0ED91FC9111970680F9
:100F8000F781E02DCD010995E6CF6CEE71E0CD0142
:100F90000E943B04BE0180910D0390910E030E94BC
:100FA00050040E9437070E9437076EEE71E082E11D
:100FB00093E00E94AA0E21E0892B09F420E0822F01
:100FC000DF91CF9108951F920F920FB60F921124C7
:100FD0002F933F934F935F936F937F938F939F9341
:100FE000AF93BF93EF93FF938091B900887F8036D2
:100FF00009F49CC068F5883209F45BC090F4803134
:1010000009F454C038F4882309F4F3C0883009F493
:101010004DC0F3C0883109F44CC0803209F45DC082
:10102000ECC0803409F468C048F4803309F455C03A
:10103000883309F0E2C080939A05D5C0803509F461
:101040004FC0883509F45DC0883409F0D6C0D3C0DC
:10105000883909F4C4C0A8F4883709F467C038F4A3
:10106000883609F463C0803709F460C0C6C0883888
:1010700009F4B5C0803909F45FC0803809F0BDC0FB
:101080005BC0803B09F483C038F4803A09F466C041
:10109000883A09F47CC0B1C0803C09F4A4C0883C03
:1010A00009F4A1C0883B09F487C0A7C080917705E7
:1010B00010C09091990580919805981770F5E0916E
:1010C000990581E08E0F80939905F0E0E858FA4F7A
:1010D00080818093BB0085EC83C080939A058BC090
:1010E000E091990581E08E0F809399058091BB0076
:1010F000F0E0E858FA4F8083909199058091980527
:101100006BC0E091990581E08E0F809399058091E5
:10111000BB00F0E0E858FA4F8083809146028111CD
:101120006AC081E08093450284EA5EC083E08093D8
:10113000470210925605CFCF80915605803208F0B5
:101140004EC0E091560581E08E0F80935605809148
:10115000BB00F0E0EA5CFA4F8083BDCF809156057A
:10116000803230F4E0915605F0E0EA5CFA4F1082EC
:101170000E945F056091560570E0E0913405F091A2
:10118000350586E395E00995109256052CC084E05C
:10119000809347021092330510923205E09130059A
:1011A000F0913105099580913205811105C081E0EA
:1011B0008093320510921005E091330581E08E0F87
:1011C00080933305F0E0E05FFA4F80818093BB00AD
:1011D0009091330580913205981708F47CCF85E80B
:1011E0008093BC000AC085EC8093BC00109247023B
:1011F00004C010929A050E945F05FF91EF91BF9184
:10120000AF919F918F917F916F915F914F913F919E
:101210002F910F900FBE0F901F901895DC015196E3
:10122000ED91FC915297908150968C9180958923F5
:1012300080830895CF93DF93CDB7DEB7A1970FB624
:10124000F894DEBF0FBECDBF789484B5826084BDB4
:1012500084B5816084BD85B5826085BD85B58160BA
:1012600085BD80916E00816080936E001092810038
:1012700080918100826080938100809181008160F3
:1012800080938100809180008160809380008091B4
:10129000B10084608093B1008091B0008160809340
:1012A000B00080917A00846080937A0080917A0007
:1012B000826080937A0080917A00816080937A00C6
:1012C00080917A00806880937A001092C100109219
:1012D0000E0510920D0510920C0510920B05109240
:1012E0000A0510920905109208051092070582E779
:1012F00090E020E030E0FC014591559165917491BA
:10130000403855426105710559F54CE0429FC001D6
:10131000439F900D1124FC01EA58FF4F2591349111
:101320003093080520930705FC01E858FF4F2591ED
:10133000349130930A0520930905FC01E658FF4FCC
:101340002591349130930C0520930B05FC01E45852
:10135000FF4F8591949190930E0580930D0507C0E2
:101360002F5F3F4F0C962D30310509F0C4CF80918F
:101370000B0590910C05892B09F446C0909100054E
:101380009631E0F520916800983050F031E09E30C1
:1013900008F430E081E001C0880F3A95EAF701C017
:1013A00084E0822B80936800983038F09E3040F0C3
:1013B000963148F4ECE6F0E008C0EDE6F0E005C058
:1013C000EBE6F0E002C0E0E0F0E04081983030F47D
:1013D00081E001C0880F9A95EAF70EC0292F30E00E
:1013E0009E3018F42850310902C02E50310981E096
:1013F00001C0880F2A95EAF7842B808380910D0520
:1014000090910E050E94260180913C0290913D0230
:10141000845F944091F080910F058E7F80930F053B
:101420008FB7F89410923A0210923B0224EF34E006
:1014300030933D0220933C028FBFE091F402F09183
:10144000F50281E090E09C010090000302C0220FB1
:10145000331F0A94E2F72083E091F002F091F10249
:101460001082E091F202F091F3022FEC20831092AF
:101470000103E091F602F091F70240819C01009097
:10148000FC0202C0220F331F0A94E2F7242B2083B0
:10149000E091F602F091F70240819C010090FD027C
:1014A00002C0220F331F0A94E2F7242B2083E0911D
:1014B000F602F091F70240819C010090FE0202C00A
:1014C000220F331F0A94E2F7242B2083E091F602C7
:1014D000F091F70220810090FF0202C0880F991F4F
:1014E0000A94E2F780958223808361E08DE00E9478
:1014F000D90460E08DE00E948D04109244021092A5
:101500004302109242021092490210924B02109232
:10151000470281E0809346021092450261E082E139
:101520000E948D0461E083E10E948D048091B900E6
:101530008E7F8093B9008091B9008D7F8093B90030
:1015400088E48093B80085E48093BC006FEF80E06E
:101550000E94BE066FEF81E00E94BE0610E0812C63
:10156000912C5401839401E0183008F400E0802F9E
:101570000E94D906912F97707501640104C0CC0CAC
:10158000DD1CEE1CFF1C9A95D2F76C2D609568232C
:10159000802F0E94BE06183010F085E101C084E162
:1015A0000E94D906682F6C29183010F083E101C021
:1015B00082E10E94BE061F5F1031A9F61092F90168
:1015C00060E0809111030E948D0461E0809111031D
:1015D0000E94D9046AE070E080E090E00E949802E6
:1015E00060E0809111030E94D90468EE73E080E00E
:1015F00090E00E9498020E9437070E9437076EEC25
:1016000071E082E193E00E94AA0E892B09F44CC09C
:101610006AEF70E080E090E00E9498020E94370735
:101620000E94370761E089E00E94D90461E087E009
:101630000E94D90461E088E00E94D904C090F901B9
:10164000D12CE12CF12C19A28E010F5D1F4F8AE0E5
:10165000882E912CA12CB12CC701B601A5019401B3
:101660000E94D80E8C2D9AE0299F801911240150D8
:1016700011098A3014F4805D01C0895CF80180830F
:1016800069017A01232B242B252B31F7B80180EE39
:1016900092E00E943B0480EE92E00E942F0280E0E4
:1016A00091E00E94A807FFCF82E08093F90166EEE7
:1016B00071E080EE92E00E945004B4CF809102036A
:1016C000909103030E94380D82EC91E09093F50411
:1016D0008093F40420910005263140F5283028F04D
:1016E0002E3030F0ECE6F0E005C0EDE6F0E002C0B0
:1016F000EBE6F0E03081283038F481E090E001C082
:10170000880F2A95EAF70FC0422F50E02E3018F4C8
:101710004850510902C04E50510981E090E001C08B
:10172000880F4A95EAF78095832380830895109265
:101730004F0210924E0288EE93E0A0E0B0E080935A
:10174000500290935102A0935202B09353022AE99F
:1017500031E030934D0220934C021092E30210923C
:10176000E2028093E4029093E502A093E602B09334
:10177000E7022AEA31E03093E1022093E0022CE90B
:1017800032E03093ED022093EC0228E532E0309312
:10179000EF022093EE0225EC30E03093F10220932B
:1017A000F00224EC30E03093F3022093F20220ECBC
:1017B00030E03093F5022093F40221EC30E03093D6
:1017C000F7022093F60222EC30E03093F9022093E6
:1017D000F80226EC30E03093FB022093FA0224E07A
:1017E0002093FC0223E02093FD0227E02093FE02D9
:1017F00025E02093FF0221E0209300031092F704DC
:101800001092F6048093F8049093F904A093FA04DC
:10181000B093FB0482EC91E09093F5048093F40480
:10182000109208051092070510920A0510920905FA
:1018300010920C0510920B0510920E0510920D05DA
:1018400080910F058E7F8D7F80930F0561E086E08C
:101850000E94D90461E086E00E948D04E6E5F1E093
:10186000E491E0930405E2E4F1E0E491F0E0EE0FAE
:10187000FF1FE85DFE4F859194919093060580933C
:10188000050560E085E00E94D90480910F0581FD87
:1018900004C061E085E00E948D0485E0809300052E
:1018A000E5E5F1E0E491E0930105E1E4F1E0E491A4
:1018B000F0E0EE0FFF1FEE5CFE4F85919491909348
:1018C00003058093020510920C0310920B038AEB20
:1018D00091E090930A038093090384EF94E090933E
:1018E0000E0380930D031092100310920F0384E0F7
:1018F0008093110384EF91E0A0E0B0E08093F804BE
:101900009093F904A093FA04B093FB04109262033D
:1019100010926303109203031092020310920503C6
:10192000109204031092070310920603109208030A
:1019300040E050E06DEE71E082E093E00C946204D0
:10194000F8940C944B0FCF93DF938230910510F4F1
:1019500082E090E0E091BD05F091BE0520E030E02E
:10196000C0E0D0E0309711F140815181481759070C
:10197000C0F04817590761F482819381209719F0CC
:101980009B838A832BC09093BE058093BD0526C0A0
:101990002115310519F04217530718F49A01BE01B9
:1019A000DF01EF010280F381E02DDCCF211531054D
:1019B00009F1281B390B2430310590F412968D91D2
:1019C0009C9113976115710521F0FB01938382832C
:1019D00004C09093BE058093BD05FD01329644C0BE
:1019E000FD01E20FF31F81939193225031092D9352
:1019F0003C933AC02091BB053091BC05232B41F4A8
:101A000020919201309193013093BC052093BB0546
:101A100020919001309191012115310541F42DB7AC
:101A20003EB74091940150919501241B350BE091F4
:101A3000BB05F091BC05E217F307A0F42E1B3F0B8A
:101A40002817390778F0AC014E5F5F4F2417350730
:101A500048F04E0F5F1F5093BC054093BB05819328
:101A6000919302C0E0E0F0E0CF01DF91CF910895C3
:101A70000F931F93CF93DF93009709F48CC0FC0161
:101A80003297138212820091BD051091BE05011597
:101A9000110581F420813181820F931F2091BB05B4
:101AA0003091BC052817390779F5F093BC05E09310
:101AB000BB0571C0D80140E050E0AE17BF0750F43D
:101AC00012962D913C911397AD012115310509F125
:101AD000D901F3CF9D01DA013383228360817181C3
:101AE000860F971F8217930769F4EC0128813981CB
:101AF000260F371F2E5F3F4F318320838A819B81C2
:101B000093838283452B29F4F093BE05E093BD05B2
:101B100042C01396FC93EE931297ED0149915991AF
:101B20009E01240F351FE217F30771F48081918124
:101B3000840F951F029611969C938E9382819381B8
:101B400013969C938E931297E0E0F0E0D8011296E2
:101B50008D919C911397009719F0F8018C01F6CFA5
:101B60008D919C9198012E5F3F4F820F931F209182
:101B7000BB053091BC052817390769F4309729F463
:101B80001092BE051092BD0502C0138212821093FE
:101B9000BC050093BB05DF91CF911F910F91089574
:101BA000A0E0B0E0E6EDFDE00C94FE0EEC01009745
:101BB00021F4CB010E94A30CB8C0FC01E60FF71F73
:101BC0009C0122503109E217F30708F4ACC0D90197
:101BD0000D911C91119706171707B0F005301105EC
:101BE00008F49FC0C80104978617970708F499C0A6
:101BF00002501109061B170B019311936D937C93EF
:101C0000CF010E94380D8DC05B01A01AB10A4C01B2
:101C1000800E911EA091BD05B091BE0540E050E040
:101C2000E12CF12C109709F44AC0A815B905D1F59B
:101C30006D907C901197630182E0C80ED11CCA148C
:101C4000DB0480F1A3014A195B096A0182E0C80E36
:101C5000D11C1296BC9012971396AC91B5E0CB169E
:101C6000D10440F0B282A38351834083D9016D93A4
:101C70007C930AC00E5F1F4FC301800F911FF901B3
:101C800091838083EB2DFA2FE114F10431F0D70119
:101C90001396FC93EE93129744C0F093BE05E09325
:101CA000BD053FC08D919C9111974817590708F4C5
:101CB000AC017D0112960D90BC91A02DB3CF809107
:101CC000BB059091BC0588159905E1F446175707A7
:101CD000C8F48091900190919101009741F48DB7E3
:101CE0009EB74091940150919501841B950BE81784
:101CF000F907C8F4F093BC05E093BB05F9017183C3
:101D000060830FC0CB010E94A30C7C01009759F0A7
:101D1000A801BE010E949A0ECE010E94380DC70193
:101D200004C0CE0102C080E090E0CDB7DEB7EEE0A7
:101D30000C941A0FFB01DC0102C001900D9241507E
:101D40005040D8F70895FB01DC0101900D9200206E
:101D5000E1F70895FB0151915523A9F0BF01DC0182
:101D60004D9145174111E1F759F4CD010190002043
:101D700049F04D9140154111C9F3FB014111EFCFDD
:101D800081E090E00197089597FB072E16F40094E8
:101D900007D077FD09D00E94310F07FC05D03EF433
:101DA000909581959F4F0895709561957F4F089507
:101DB000A1E21A2EAA1BBB1BFD010DC0AA1FBB1F4F
:101DC000EE1FFF1FA217B307E407F50720F0A21BC1
:101DD000B30BE40BF50B661F771F881F991F1A942E
:101DE00069F760957095809590959B01AC01BD0158
:101DF000CF0108952F923F924F925F926F927F9200
:101E00008F929F92AF92BF92CF92DF92EF92FF920A
:101E10000F931F93CF93DF93CDB7DEB7CA1BDB0BB6
:101E20000FB6F894DEBF0FBECDBF09942A8839885B
:101E300048885F846E847D848C849B84AA84B98462
:101E4000C884DF80EE80FD800C811B81AA81B9816E
:101E5000CE0FD11D0FB6F894DEBF0FBECDBFED0182
:101E60000895AA1BBB1B51E107C0AA1FBB1FA617E1
:101E7000B70710F0A61BB70B881F991F5A95A9F733
:101E800080959095BC01CD010895EE0FFF1F059040
:101E9000F491E02D099410E0C3EBD0E004C0FE0102
:101EA0000E94450F2196C43BD107C9F7F894FFCF94
:101EB0004C4F4F4E592020204F4747004259415226
:101EC000442020204F474700435241434B202020CD
:101ED0004F47470049434543202020204F474700B4
:101EE0004C4F4E45202020204F4747004D4C494E37
:101EF000472020204F4747004D54432020202020DA
:101F00004F4747004E45574D432020204F4747003D
:101F100000000000000000000000000000000000C1
:101F200000000000000000000000000000000000B1
:101F300000000000000000000000000000000000A1
:101F40000000BF05200000000000D20595058D05AA
:101F500079056A0569050000000091014B021A022B
:101F6000DE01FE01D30100000000FB054B02000072
:101F70000000BE024B02ED0005014B06DE0041648D
:101F800061667275697420465820536F756E6420BF
:101F9000426F617264004552524F52005000706CA3
:041FA0006179000063
:00000001FF
