:100000000C94B4000C94DC000C94DC000C94B6034B
:100010000C9492030C946E030C94DC000C94DC00A2
:100020000C94DC000C94DC000C94DC000C94DC00E0
:100030000C94DC000C94DC000C94DC000C94DC00D0
:100040000C9402050C94DC000C9415040C94DA0357
:100050000C94DC000C94DC000C94DC000C94DC00B0
:100060000C9495070C94DC0000000000240027008D
:100070002A0000C201000100110011000C0000E183
:1000800000000A002500250021000096000019004C
:10009000390039003600127A00001F004600460081
:1000A00044008070000022004D004D004A00004BCB
:1000B00000003600750075007200403800004A00EC
:1000C0009C009C009900802500007200EC00EC0070
:1000D000E900C0120000E900DA01DA01D701600985
:1000E0000000D701B603B603B303B0040000B303A6
:1000F0006E076E076B07580200006E07DC0EDC0E01
:10010000D80E2C010000DC0EC11DC11DBE1D00005B
:1001100000070002010000030406000000000000C8
:1001200000002D2D2D3E200000000000250028009D
:100130002B00000000002300260029000404040412
:100140000404040402020202020203030303030381
:10015000010204081020408001020408102001025E
:10016000040810203C0B030B11241FBECFEFD8E076
:10017000DEBFCDBF11E0A0E0B1E0E6EBFDE102C0E3
:1001800005900D92A835B107D9F725E0A8E5B1E0B3
:1001900001C01D92A332B207E1F710E0C3EBD0E03B
:1001A00004C02197FE010E94C80EC23BD107C9F7C7
:1001B0000E94CC080C94450C0C9400002091A001E6
:1001C0003091A1012817390739F48FB7F8941092AC
:1001D0009E0110929F018FBF08952091A001309140
:1001E000A1012817390771F480919E0120919F0188
:1001F00090E0805C9F4F821B910960E470E00E9458
:10020000690E089580E090E008952091A00130915A
:10021000A10128173907B9F490919F0180919E019F
:10022000981789F0E0919F01F0E0E25AFE4F80813B
:1002300020919F0130E02F5F3F4F2F733327209392
:100240009F0190E008958FEF9FEF089520E00197C0
:100250002FEF8F3F9207D9F70895EF92FF920F93F8
:100260001F93CF93DF93C091A001D091A10120975C
:1002700009F450C09B8DEE85FF858D8591FF04C0EC
:100280009081892329F446C09081892309F042C0D6
:100290008B899C890E94260188E0E82EF12C10E0D1
:1002A00001E08D899E890E942601EE85FF8590815F
:1002B0008D85892311F0102B03C0802F8095182382
:1002C000000F81E0E81AF10861F78F89988D0E948C
:1002D00026018B8D81FD109580919E0120919F01BB
:1002E00090E001968F73992730E08217930779F099
:1002F000E0919E01F0E0E25AFE4F108380919E0152
:1003000090E001968F73992780939E0103C08B8D97
:1003100081608B8FDF91CF911F910F91FF90EF90B4
:1003200008950F931F93CF93DF93FC01A685B785A4
:100330008D01005C1F4FE8018881998101968F73C0
:100340009927AD014E5B5F4FEA0128813981821701
:100350009307D1F3E80128813981A20FB31F6C9371
:10036000A685B785A05CBF4F11969C938E93A689F6
:10037000B7892C9181E090E0078C02C0880F991F0B
:100380000A94E2F7822B8C9381E081A30488F5899B
:10039000E02D80818064808381E090E0DF91CF91C7
:1003A0001F910F910895FC0181A1882329F0A48950
:1003B000B5898C9186FFFBCF11A20895FC01A4851D
:1003C000B585FD01E05CFF4F20813181329680814F
:1003D00091812817390779F080819181A80FB91F81
:1003E0008C91208131812F5F3F4F2F7333273183D1
:1003F000208390E008958FEF9FEF0895DC011C9615
:10040000ED91FC911D97DF01A05CBF4F2D913C91B8
:10041000119712968D919C9111972817390739F0F1
:100420008D919C91E80FF91F808190E008958FEFE6
:100430009FEF0895FC0124853585F901E05CFF4FAD
:1004400080819181329620813181821B930B8F7341
:100450009927089584E492E00C941A020895DC012F
:10046000ED91FC910190F081E02D09940F931F9381
:10047000CF93DF93EC016DE00E942F028C016AE0C4
:10048000CE010E942F02800F911FDF91CF911F910B
:100490000F910895CF92DF92EF92FF920F931F93E7
:1004A000CF93DF936C01EB017B01E40EF51E00E0BE
:1004B00010E0CE15DF0561F06991D601ED91FC9158
:1004C0000190F081E02DC6010995080F191FF1CFA9
:1004D000C801DF91CF911F910F91FF90EF90DF90B6
:1004E000CF9008953FB7F8948091590190915A01A7
:1004F000A0915B01B0915C0126B5A89B05C02F3F80
:1005000019F00196A11DB11D3FBFBA2FA92F982F39
:100510008827820F911DA11DB11DBC01CD0142E0B4
:10052000660F771F881F991F4A95D1F70895CF92BC
:10053000DF92EF92FF92CF93DF936B017C010E94D9
:100540007202EB01C114D104E104F10479F00E94BC
:1005500072026C1B7D0B683E7340A0F381E0C81AE9
:10056000D108E108F108C851DC4FECCFDF91CF9101
:10057000FF90EF90DF90CF900895DF92EF92FF927F
:100580000F931F93CF93DF93EC01298D3A8D2115A3
:10059000310529F481E090E09B838A835AC0162FAD
:1005A000DFB6F8948B8D81FD4DC0CE010E94C0084E
:1005B000898D9A8D05960E9426018B8D98E0E92EF3
:1005C000F12C01E081FF1AC0802F812321F0CE01A0
:1005D0000E94C00806C0E989FA8990818889892B20
:1005E0008083898D9A8D0E942601000F81E0E81A90
:1005F000F10851F7CE010E94C0081CC0802F812352
:1006000039F0E989FA8990818889892B808303C030
:10061000CE010E94C008898D9A8D0E942601000F8C
:1006200081E0E81AF10851F7E989FA89908188890F
:10063000892B8083DFBE898D9A8D0E94260121E05F
:1006400030E007C0E989FA8990818889892B808305
:10065000AFCFC901DF91CF911F910F91FF90EF9024
:10066000DF9008956115710579F0FB01019000207C
:10067000E9F73197AF01461B570BDC01ED91FC9177
:100680000280F381E02D099480E090E008950F93BB
:100690001F93CF93DF93EC0188819981009729F014
:1006A0002A813B812617370788F48B016F5F7F4FC4
:1006B0000E94750D009761F0998388831B830A83DC
:1006C0002C813D81232B11F4FC01108281E001C0BB
:1006D00080E0DF91CF911F910F9108951F920F92AB
:1006E0000FB60F9211242F933F934F935F936F9305
:1006F0007F938F939F93AF93BF93EF93FF930E944A
:100700002D01FF91EF91BF91AF919F918F917F91BB
:100710006F915F914F913F912F910F900FBE0F906E
:100720001F9018951F920F920FB60F9211242F93BE
:100730003F934F935F936F937F938F939F93AF9369
:10074000BF93EF93FF930E942D01FF91EF91BF9113
:10075000AF919F918F917F916F915F914F913F9159
:100760002F910F900FBE0F901F9018951F920F9210
:100770000FB60F9211242F933F934F935F936F9374
:100780007F938F939F93AF93BF93EF93FF930E94B9
:100790002D01FF91EF91BF91AF919F918F917F912B
:1007A0006F915F914F913F912F910F900FBE0F90DE
:1007B0001F9018951F920F920FB60F9211242F932E
:1007C0003F938F939F93EF93FF932091FC01309180
:1007D000FD018091FE019091FF012817390731F446
:1007E0008091C1008F7D8093C10014C0E091FE0113
:1007F000F091FF01E454FE4F20818091FE01909121
:10080000FF0101968F7399279093FF018093FE015A
:100810002093C600FF91EF919F918F913F912F916F
:100820000F900FBE0F901F9018951F920F920FB64A
:100830000F9211242F934F935F938F939F93EF9376
:10084000FF938091C00082FD1CC02091C600809162
:1008500040029091410201968F7399274091420284
:10086000509143028417950771F0E0914002F09196
:100870004102E050FE4F208390934102809340025A
:1008800002C08091C600FF91EF919F918F915F917F
:100890004F912F910F900FBE0F901F901895EF92D0
:1008A000FF920F931F93CF93DF93EC017B018A019B
:1008B000BA010E9447032881398181110DC0211599
:1008C000310519F0C9010E94DD0C198218821D82C0
:1008D0001C821B821A8206C01D830C83B701C901CA
:1008E0000E94480ECE01DF91CF911F910F91FF9092
:1008F000EF90089590E0FC01E25FFE4F3491FC011F
:10090000E05BFE4F2491FC01E45CFE4FE491EE239A
:1009100009F43BC0332339F1333091F038F43130EE
:10092000A9F0323001F584B58F7D12C0363091F0D8
:100930003730A1F03430B9F4809180008F7D03C04E
:10094000809180008F77809380000DC084B58F7771
:1009500084BD09C08091B0008F7703C08091B00042
:100960008F7D8093B000F0E0EE0FFF1FE85DFE4F3B
:10097000A591B4918FB7F894EC91611103C02095C3
:100980002E2301C02E2B2C938FBF0895CF93DF937E
:1009900090E0FC01E05BFE4F2491FC01E45CFE4F23
:1009A0008491882361F190E0880F991FFC01E85938
:1009B000FF4FC591D491FC01E85DFE4FA591B49124
:1009C000611109C09FB7F89488812095822388839C
:1009D000EC912E230BC0623061F49FB7F8943881FC
:1009E000822F809583238883EC912E2B2C939FBF9D
:1009F00006C08FB7F894E8812E2B28838FBFDF9134
:100A0000CF9108951F920F920FB60F9211242F933A
:100A10003F938F939F93AF93BF938091A201909147
:100A2000A301A091A401B091A5013091580123E048
:100A3000230F2D3720F40196A11DB11D05C026E816
:100A4000230F0296A11DB11D209358018093A2018E
:100A50009093A301A093A401B093A50180915901A3
:100A600090915A01A0915B01B0915C010196A11D8A
:100A7000B11D8093590190935A01A0935B01B093EB
:100A80005C01BF91AF919F918F913F912F910F90FA
:100A90000FBE0F901F90189585ED8093BC0080913C
:100AA000BC0084FDFCCF1092AB0108950895E09145
:100AB000A7018091A601E81730F4F0E0E554FB4F60
:100AC000808190E008958FEF9FEF08959091A701A6
:100AD0008091A601981750F4E92FF0E0E554FB4F00
:100AE000208130E09F5F9093A70102C02FEF3FEF7E
:100AF000C90108958091A60190E02091A701821B71
:100B000091090895CF92DF92EF92FF920F931F9376
:100B1000CF93DF937C018A018091AC01882389F017
:100B2000EB016B01C40ED51ECC15DD05F1F069910A
:100B3000D701ED91FC910190F081E02DC70109955D
:100B4000F3CF842F413288F49091AB01943069F453
:100B500040939604FB0124E734E0D9019A2F921BBD
:100B6000981718F491919D93F9CFC801DF91CF9117
:100B70001F910F91FF90EF90DF90CF9008952091FB
:100B8000AC012223C9F02091AF01203240F021E0D6
:100B900030E0FC013383228380E090E0089580916F
:100BA000AD01E82FF0E0E150FB4F60838F5F809351
:100BB000AD018093AF0109C08091AB01843029F46D
:100BC00081E0809396046093740481E090E008953E
:100BD000AF92BF92DF92EF92FF920F931F93CF934A
:100BE000DF938C01D62EDC011696ED90FC901797C2
:100BF000E114F10449F15C01B9E5AB0EB11CF5015A
:100C00008081811114C0E2E2F1E06491EF0121964C
:100C1000662351F0D701ED91FC910190F081E02D18
:100C2000C7010995FE01F1CF81E0F5018083D8016C
:100C300016968D919C911797DC01ED91FC91019096
:100C4000F081E02D6D2D0995F80184819581DC01FD
:100C5000ED91FC910190F081E02D6D2DDF91CF9110
:100C60001F910F91FF90EF90DF90BF90AF9009948C
:100C70002091A0013091A1012817390781F49091AA
:100C80009F0180919E01981751F0E0919F01F0E043
:100C9000E25AFE4F8081082E000C990B08958FEFC9
:100CA0009FEF08952091AF019091AE01213208F09D
:100CB00046C08091AB018111FCCF32E03093AB0193
:100CC00031E03093AA013FEF3093FE041092FD040F
:100CD0002093FC04AFEFB4E04CED54E0FA013E2F5A
:100CE000341B321718F43D913193F9CF1092DB0485
:100CF0002091DB04990F922B9093DB049091A90132
:100D0000913041F41092A9019091DB049093BB00C3
:100D100095EC01C095EE9093BC009091AB019230A0
:100D2000E1F39091FE049F3F79F08091FE048032C0
:100D300041F08091FE04803331F084E005C081E011
:100D400003C082E001C083E01092AD011092AF01B8
:100D50001092AC010895CF93C62F9091A801906294
:100D600021E02093AC019093AE011092AD0110925E
:100D7000AF01682F80EB91E00E94BF056C2F80EBE4
:100D800091E00E94BF05CF910C9452069091A8016A
:100D9000906221E02093AC019093AE011092AD01DE
:100DA0001092AF01682F80EB91E00E94BF050E9476
:100DB00052068091A8019091AB019111FCCF91E076
:100DC0009093AB019093AA012FEF2093FE04109211
:100DD000FD041092FC049093DB049091DB0480628C
:100DE000880F892B8093DB048091A901813041F425
:100DF0001092A9018091DB048093BB0085EC01C0B7
:100E000085EE8093BC008091AB018130E1F380914D
:100E1000FD04811103C08091FD0401C081E0ACEDAF
:100E2000B4E02BEB34E0F9019E2F921B981718F4D5
:100E30009D919193F9CF1092A7018093A60180EB29
:100E400091E00E94660508950F931F93CF93DF935F
:100E50000091710210917202C0E0D0E02FB7F894B7
:100E60008091A2019091A301A091A401B091A5014C
:100E70002FBFF80180879187A287B387D801ED91B2
:100E8000FC910680F781E02DC801099597FD04C00B
:100E90008A309105F9F427C02FB7F8948091A20108
:100EA0009091A301A091A401B091A5012FBFF801D9
:100EB0004085518562857385841B950BA60BB70B06
:100EC000448155816681778184179507A607B70706
:100ED000A8F209C0FE01E359FD4F81872196C03574
:100EE000D10509F0BBCFFE01E359FD4F118680917A
:100EF000710290917202DC01ED91FC910084F18508
:100F0000E02D09950D9759F480917102909172022C
:100F1000DC01ED91FC910680F781E02D0995CE0171
:100F2000DF91CF911F910F9108951F920F920FB6ED
:100F30000F9211242F933F934F935F936F937F935F
:100F40008F939F93AF93BF93EF93FF938091B900DB
:100F5000887F803609F49CC068F5883209F45BC04C
:100F600090F4803109F454C038F4882309F4F3C0B4
:100F7000883009F44DC0F3C0883109F44CC0803288
:100F800009F45DC0ECC0803409F468C048F48033D3
:100F900009F455C0883309F0E2C08093FE04D5C03F
:100FA000803509F44FC0883509F45DC0883409F0F4
:100FB000D6C0D3C0883909F4C4C0A8F4883709F46E
:100FC00067C038F4883609F463C0803709F460C01C
:100FD000C6C0883809F4B5C0803909F45FC08038CC
:100FE00009F0BDC05BC0803B09F483C038F4803A8F
:100FF00009F466C0883A09F47CC0B1C0803C09F4A9
:10100000A4C0883C09F4A1C0883B09F487C0A7C0EC
:101010008091DB0410C09091FD048091FC0498172E
:1010200070F5E091FD0481E08E0F8093FD04F0E007
:10103000E452FB4F80818093BB0085EC83C080939A
:10104000FE048BC0E091FD0481E08E0F8093FD04CF
:101050008091BB00F0E0E452FB4F80839091FD044F
:101060008091FC046BC0E091FD0481E08E0F8093C1
:10107000FD048091BB00F0E0E452FB4F808380913F
:10108000AA0181116AC081E08093A90184EA5EC04F
:1010900083E08093AB011092BA04CFCF8091BA0461
:1010A000803208F04EC0E091BA0481E08E0F809348
:1010B000BA048091BB00F0E0E656FB4F8083BDCFC1
:1010C0008091BA04803230F4E091BA04F0E0E65640
:1010D000FB4F10820E944C056091BA0470E0E091D1
:1010E0009804F09199048AE994E009951092BA0461
:1010F0002CC084E08093AB01109297041092960468
:10110000E0919404F09195040995809196048111E1
:1011100005C081E08093960410927404E0919704D6
:1011200081E08E0F80939704F0E0EC58FB4F8081B4
:101130008093BB009091970480919604981708F4CF
:101140007CCF85E88093BC000AC085EC8093BC000E
:101150001092AB0104C01092FE040E944C05FF9156
:10116000EF91BF91AF919F918F917F916F915F911F
:101170004F913F912F910F900FBE0F901F90189598
:10118000DC015196ED91FC915297908150968C9193
:101190008095892380830895CF93DF93CDB7DEB701
:1011A000A1970FB6F894DEBF0FBECDBF789484B57B
:1011B000826084BD84B5816084BD85B5826085BD53
:1011C00085B5816085BD80916E00816080936E00E1
:1011D00010928100809181008260809381008091D3
:1011E0008100816080938100809180008160809384
:1011F00080008091B10084608093B1008091B00044
:1012000081608093B00080917A00846080937A003E
:1012100080917A00826080937A0080917A00816068
:1012200080937A0080917A00806880937A0010928F
:10123000C100109272041092710410927004109206
:101240006F0410926E0410926D0410926C04109250
:101250006B0482E790E020E030E0FC01459155917D
:1012600065917491403855426105710559F54CE01E
:10127000429FC001439F900D1124FC01EA58FF4F8B
:101280002591349130936C0420936B04FC01E85851
:10129000FF4F2591349130936E0420936D04FC012F
:1012A000E658FF4F259134913093700420936F04DA
:1012B000FC01E458FF4F85919491909372048093C0
:1012C000710407C02F5F3F4F0C962D30310509F098
:1012D000C4CF80916F0490917004892B09F446C0AB
:1012E000909164049631E0F520916800983050F0B8
:1012F00031E09E3008F430E081E001C0880F3A957B
:10130000EAF701C084E0822B80936800983038F0BF
:101310009E3040F0963148F4ECE6F0E008C0EDE68F
:10132000F0E005C0EBE6F0E002C0E0E0F0E0408174
:10133000983030F481E001C0880F9A95EAF70EC02A
:10134000292F30E09E3018F42850310902C02E5069
:10135000310981E001C0880F2A95EAF7842B808348
:1013600080917104909172040E9426018091A001E5
:101370009091A1018855944091F0809173048E7FE3
:10138000809373048FB7F89410929E0110929F017E
:1013900028E534E03093A1012093A0018FBFE091B4
:1013A0005802F091590281E090E09C0100906402A3
:1013B00002C0220F331F0A94E2F72083E091540207
:1013C000F09155021082E0915602F09157022FECF5
:1013D000208310926502E0915A02F0915B024081F5
:1013E0009C010090600202C0220F331F0A94E2F7B2
:1013F000242B2083E0915A02F0915B0240819C01F2
:101400000090610202C0220F331F0A94E2F7242BDE
:101410002083E0915A02F0915B0240819C01009090
:10142000620202C0220F331F0A94E2F7242B2083AA
:10143000E0915A02F0915B0220810090630202C0A9
:10144000880F991F0A94E2F780958223808361E0D8
:101450008DE00E94C60460E08DE00E947A04109244
:10146000A8011092A7011092A6011092AD0110924E
:10147000AF011092AB0181E08093AA011092A90103
:1014800061E082E10E947A0461E083E10E947A04D3
:101490008091B9008E7F8093B9008091B9008D7FD3
:1014A0008093B90088E48093B80085E48093BC0001
:1014B0006FEF80E00E94AB066FEF81E00E94AB0609
:1014C00010E0812C912C5401839401E0183008F431
:1014D00000E0802F0E94C606912F9770750164016D
:1014E00004C0CC0CDD1CEE1CFF1C9A95D2F76C2DB1
:1014F00060956823802F0E94AB06183010F085E1BC
:1015000001C084E10E94C606682F6C29183010F0D3
:1015100083E101C082E10E94AB061F5F1031A9F692
:1015200060E0809175020E947A0461E0809175020A
:101530000E94C6046AE070E080E090E00E9497029A
:1015400060E0809175020E94C60468EE73E080E05E
:1015500090E00E9497020E9424070E9424076EE3F5
:1015600071E086E792E00E944F0E892B51F06AEFFE
:1015700070E080E090E00E9497020E9424070E94A1
:10158000240761E089E00E94C60461E087E00E94D0
:10159000C60461E088E00E94C60410925D0180915B
:1015A000710290917202DC01ED91FC910480F58151
:1015B000E02D0995A0917102B0917202892B49F03A
:1015C000ED91FC9111970680F781E02DCD010995F1
:1015D000E6CF66E571E0CD010E9432030091710211
:1015E0001091720219A281E388A3BE01605E7F4F51
:1015F000C8010E943203C8010E9436020E942407DB
:101600000E942407FFCF80916602909167020E949A
:10161000DD0C82E391E0909359048093580420916B
:101620006404263140F5283028F02E3030F0ECE606
:10163000F0E005C0EDE6F0E002C0EBE6F0E030815E
:10164000283038F481E090E001C0880F2A95EAF74D
:101650000FC0422F50E02E3018F44850510902C0FC
:101660004E50510981E090E001C0880F4A95EAF799
:1016700080958323808308951092B3011092B20164
:1016800088EE93E0A0E0B0E08093B4019093B501C0
:10169000A093B601B093B7012AE031E03093B101D5
:1016A0002093B001109247021092460280934802A4
:1016B00090934902A0934A02B0934B022AE131E091
:1016C000309345022093440220E032E030935102EF
:1016D000209350022CEB31E03093530220935202BE
:1016E00025EC30E0309355022093540224EC30E096
:1016F000309357022093560220EC30E03093590289
:101700002093580221EC30E030935B0220935A0280
:1017100022EC30E030935D0220935C0226EC30E056
:1017200030935F0220935E0224E02093600223E066
:101730002093610227E02093620225E02093630258
:1017400021E02093640210925B0410925A0480936B
:101750005C0490935D04A0935E04B0935F0482E305
:1017600091E0909359048093580410926C04109265
:101770006B0410926E0410926D041092700410921B
:101780006F041092720410927104809173048E7F22
:101790008D7F8093730461E086E00E94C60461E05F
:1017A00086E00E947A04E6E5F1E0E491E0936804C3
:1017B000E2E4F1E0E491F0E0EE0FFF1FE85DFE4FA0
:1017C0008591949190936A048093690460E085E028
:1017D0000E94C6048091730481FD04C061E085E02D
:1017E0000E947A0485E080936404E5E5F1E0E491E9
:1017F000E0936504E1E4F1E0E491F0E0EE0FFF1F17
:10180000EE5CFE4F859194919093670480936604FB
:101810001092700210926F028AE291E090936E0231
:1018200080936D0288E594E0909372028093710238
:10183000109274021092730284E08093750284EF18
:1018400091E0A0E0B0E080935C0490935D04A093ED
:101850005E04B0935F041092C6021092C702109209
:10186000670210926602109269021092680210924A
:101870006B0210926A0210926C0240E050E067E541
:1018800071E086E692E00C944F04F8940C94CE0E2E
:10189000CF93DF938230910510F482E090E0E091E5
:1018A0002105F091220520E030E0C0E0D0E0309743
:1018B00011F14081518148175907C0F04817590765
:1018C00061F482819381209719F09B838A832BC0D6
:1018D000909322058093210526C02115310519F02A
:1018E0004217530718F49A01BE01DF01EF0102808D
:1018F000F381E02DDCCF2115310509F1281B390BCF
:101900002430310590F412968D919C9113976115B6
:10191000710521F0FB019383828304C0909322051B
:1019200080932105FD01329644C0FD01E20FF31FB3
:1019300081939193225031092D933C933AC0209189
:101940001F0530912005232B41F420910201309195
:1019500003013093200520931F0520910001309151
:1019600001012115310541F42DB73EB74091040125
:1019700050910501241B350BE0911F05F0912005C6
:10198000E217F307A0F42E1B3F0B2817390778F056
:10199000AC014E5F5F4F2417350748F04E0F5F1FB5
:1019A0005093200540931F058193919302C0E0E07E
:1019B000F0E0CF01DF91CF9108950F931F93CF9364
:1019C000DF93009709F48CC0FC01329713821282D6
:1019D00000912105109122050115110581F4208146
:1019E0003181820F931F20911F0530912005281708
:1019F000390779F5F0932005E0931F0571C0D801F0
:101A000040E050E0AE17BF0750F412962D913C9184
:101A10001397AD012115310509F1D901F3CF9D01CE
:101A2000DA013383228360817181860F971F8217C9
:101A3000930769F4EC0128813981260F371F2E5F47
:101A40003F4F318320838A819B8193838283452BFF
:101A500029F4F0932205E093210542C01396FC93EC
:101A6000EE931297ED01499159919E01240F351F74
:101A7000E217F30771F480819181840F951F02961C
:101A800011969C938E938281938113969C938E934F
:101A90001297E0E0F0E0D80112968D919C91139797
:101AA000009719F0F8018C01F6CF8D919C91980167
:101AB0002E5F3F4F820F931F20911F05309120050D
:101AC0002817390769F4309729F4109222051092EB
:101AD000210502C0138212821093200500931F0576
:101AE000DF91CF911F910F910895A0E0B0E0EBE757
:101AF000FDE00C94810EEC01009721F4CB010E94D3
:101B0000480CB8C0FC01E60FF71F9C0122503109B8
:101B1000E217F30708F4ACC0D9010D911C9111979D
:101B200006171707B0F00530110508F49FC0C8016B
:101B300004978617970708F499C002501109061BED
:101B4000170B019311936D937C93CF010E94DD0CD1
:101B50008DC05B01A01AB10A4C01800E911EA091AC
:101B60002105B091220540E050E0E12CF12C1097C6
:101B700009F44AC0A815B905D1F56D907C9011976C
:101B8000630182E0C80ED11CCA14DB0480F1A301FA
:101B90004A195B096A0182E0C80ED11C1296BC90FA
:101BA00012971396AC91B5E0CB16D10440F0B282F7
:101BB000A38351834083D9016D937C930AC00E5F48
:101BC0001F4FC301800F911FF90191838083EB2D7B
:101BD000FA2FE114F10431F0D7011396FC93EE9340
:101BE000129744C0F0932205E09321053FC08D91E8
:101BF0009C9111974817590708F4AC017D01129682
:101C00000D90BC91A02DB3CF80911F059091200520
:101C100088159905E1F446175707C8F4809100012B
:101C200090910101009741F48DB79EB74091040156
:101C300050910501841B950BE817F907C8F4F09340
:101C40002005E0931F05F901718360830FC0CB016C
:101C50000E94480C7C01009759F0A801BE010E9427
:101C60003F0ECE010E94DD0CC70104C0CE0102C0B0
:101C700080E090E0CDB7DEB7EEE00C949D0EFB0166
:101C8000DC0102C001900D9241505040D8F70895F8
:101C9000FB01DC0101900D920020E1F70895FB01AA
:101CA00051915523A9F0BF01DC014D914517411118
:101CB000E1F759F4CD010190002049F04D91401514
:101CC0004111C9F3FB014111EFCF81E090E0019791
:101CD000089597FB072E16F4009407D077FD09D0DE
:101CE0000E94B40E07FC05D03EF4909581959F4F5D
:101CF0000895709561957F4F08952F923F924F926E
:101D00005F926F927F928F929F92AF92BF92CF928B
:101D1000DF92EF92FF920F931F93CF93DF93CDB794
:101D2000DEB7CA1BDB0B0FB6F894DEBF0FBECDBF0C
:101D300009942A88398848885F846E847D848C84DD
:101D40009B84AA84B984C884DF80EE80FD800C81E6
:101D50001B81AA81B981CE0FD11D0FB6F894DEBFC9
:101D60000FBECDBFED010895AA1BBB1B51E107C0FB
:101D7000AA1FBB1FA617B70710F0A61BB70B881F1B
:101D8000991F5A95A9F780959095BC01CD010895AA
:101D9000EE0FFF1F0590F491E02D099410E0C3EBC6
:101DA000D0E004C0FE010E94C80E2196C43BD107BA
:061DB000C9F7F894FFCF13
:101DB60000002305200000000000BF0582057A050B
:101DC6006605570556050000000091014A021A02F1
:101DD600DE01FE01D30100000000E8054A02000012
:101DE6000000BD024A02ED0005013806DE0041642E
:101DF60061667275697420465820536F756E64204B
:081E0600426F617264002300C9
:00000001FF
