:100000000C9458000C9480000C9480000C94800098
:100010000C9480000C9480000C9480000C94800060
:100020000C9480000C9480000C9480000C94800050
:100030000C9480000C9480000C9480000C94800040
:100040000C94D8030C9480000C9480000C948000D5
:100050000C9480000C9480000C9480000C94800020
:100060000C94AD020C9480000000000025002800D4
:100070002B00040404040404040402020202020229
:10008000030303030303010204081020408001025C
:1000900004081020010204081020000000070002DC
:1000A000010000030406000000000000000022041C
:1000B00011241FBECFEFD8E0DEBFCDBF11E0A0E01E
:1000C000B1E0E6EAF9E002C005900D92A031B10777
:1000D000D9F721E0A0E1B1E001C01D92AA3DB2072D
:1000E000E1F710E0C8E5D0E004C02197FE010E94CE
:1000F000CB04C735D107C9F70E9433040C94C80458
:100100000C9400002091D9019091D801213208F07F
:1001100046C08091A9018111FCCF32E03093A90142
:1001200031E03093A8013FEF3093A7011092A60170
:100130002093A501A8EBB1E045E851E0FA013E2F7C
:10014000341B321718F43D913193F9CF109284018A
:1001500020918401990F922B9093840190918301B7
:10016000913041F410928301909184019093BB00EF
:1001700095EC01C095EE9093BC009091A90192304E
:10018000E1F39091A7019F3F79F08091A701803220
:1001900041F08091A701803331F084E005C081E017
:1001A00003C082E001C083E01092B7011092D90130
:1001B0001092B601089590E0FC01E656FF4F24919D
:1001C000FC01EA57FF4F3491FC01EE58FF4FE491D8
:1001D000EE23B1F1222339F1233091F038F42130AC
:1001E000A9F0223001F584B58F7D12C0263091F040
:1001F0002730A1F02430B9F4809180008F7D03C0B6
:10020000809180008F77809380000DC084B58F77B8
:1002100084BD09C08091B0008F7703C08091B00089
:100220008F7D8093B000F0E0EE0FFF1FE859FF4F85
:10023000A591B4918FB7F894EC913E2B3C938FBF6E
:10024000089585ED8093BC008091BC0084FDFCCFB7
:100250001092A90108950895CF92DF92EF92FF9234
:100260000F931F93CF93DF936C01EB017B01E40E9F
:10027000F51E00E010E0CE15DF0561F06991D601B2
:10028000ED91FC910190F081E02DC6010995080FD8
:10029000191FF1CFC801DF91CF911F910F91FF90EE
:1002A000EF90DF90CF9008950895E09161018091E3
:1002B0006001E81730F4F0E0EE59FE4F808190E0E5
:1002C00008958FEF9FEF08959091610180916001F3
:1002D000981750F4E92FF0E0EE59FE4F208130E0FE
:1002E0009F5F9093610102C02FEF3FEFC901089516
:1002F0008091600190E020916101821B9109089535
:10030000CF92DF92EF92FF920F931F93CF93DF93E1
:100310007C018A018091B601882389F0EB016B0191
:10032000C40ED51ECC15DD05F1F06991D701ED9114
:10033000FC910190F081E02DC7010995F3CF842F46
:10034000413288F49091A901943069F440933B01C3
:10035000FB0129E131E0D9019A2F921B981718F47B
:1003600091919D93F9CFC801DF91CF911F910F918A
:10037000FF90EF90DF90CF9008952091B601222357
:10038000C9F02091D901203240F021E030E0FC0199
:100390003383228380E090E008958091B701E82FB5
:1003A000F0E0E854FE4F60838F5F8093B701809345
:1003B000D90109C08091A901843029F481E080939A
:1003C0003B016093190181E090E0089590918201D2
:1003D000906221E02093B6019093D8011092B7016A
:1003E0001092D901682F8AEA91E00E94BD010E9413
:1003F0008200809182019091A9019111FCCF91E03E
:100400009093A9019093A8012FEF2093A701109238
:10041000A6011092A50190938401909184018062BD
:10042000880F892B8093840180918301813041F46E
:1004300010928301809184018093BB0085EC01C000
:1004400085EE8093BC008091A9018130E1F3809119
:10045000A601811103C08091A60101C081E0A5E839
:10046000B1E022E631E0F9019E2F921B981718F4B3
:100470009D919193F9CF10926101809360018AEA76
:1004800091E00E9464010895CF93C62F909182015C
:10049000906221E02093B6019093D8011092B701A9
:1004A0001092D901682F8AEA91E00E94BD016C2F59
:1004B0008AEA91E00E94BD01CF910C9482003FB77F
:1004C000F8948091150190911601A0911701B091B7
:1004D000180126B5A89B05C02F3F19F00196A11D54
:1004E000B11D3FBFBA2FA92F982F8827820F911DCA
:1004F000A11DB11DBC01CD0142E0660F771F881F11
:10050000991F4A95D1F70895CF92DF92EF92FF920B
:10051000CF93DF930E945F02EB0188EEC82E83E049
:10052000D82EE12CF12C0E945F026C1B7D0B683EE3
:10053000734038F081E0C81AD108E108F108C851C9
:10054000DC4FC114D104E104F10469F7DF91CF91CC
:10055000FF90EF90DF90CF9008951F920F920FB60B
:100560000F9211242F933F934F935F936F937F9339
:100570008F939F93AF93BF93EF93FF938091B900B5
:10058000887F803609F49CC068F5883209F45BC026
:1005900090F4803109F454C038F4882309F4F3C08E
:1005A000883009F44DC0F3C0883109F44CC0803262
:1005B00009F45DC0ECC0803409F468C048F48033AD
:1005C00009F455C0883309F0E2C08093A701D5C073
:1005D000803509F44FC0883509F45DC0883409F0CE
:1005E000D6C0D3C0883909F4C4C0A8F4883709F448
:1005F00067C038F4883609F463C0803709F460C0F6
:10060000C6C0883809F4B5C0803909F45FC08038A5
:1006100009F0BDC05BC0803B09F483C038F4803A68
:1006200009F466C0883A09F47CC0B1C0803C09F482
:10063000A4C0883C09F4A1C0883B09F487C0A7C0C6
:100640008091840110C09091A6018091A501981716
:1006500070F5E091A60181E08E0F8093A601F0E095
:10066000EB57FE4F80818093BB0085EC83C0809365
:10067000A7018BC0E091A60181E08E0F8093A601B7
:100680008091BB00F0E0EB57FE4F80839091A60174
:100690008091A5016BC0E091A60181E08E0F80934F
:1006A000A6018091BB00F0E0EB57FE4F8083809164
:1006B000A80181116AC081E08093830184EA5EC051
:1006C00083E08093A90110925F01CFCF80915F01F9
:1006D000803208F04EC0E0915F0181E08E0F809380
:1006E0005F018091BB00F0E0E15CFE4F8083BDCFF5
:1006F00080915F01803230F4E0915F01F0E0E15CD5
:10070000FE4F10820E94210160915F0170E0E09134
:100710003D01F0913E018FE391E0099510925F0158
:100720002CC084E08093A90110923C0110923B01FF
:10073000E0913901F0913A01099580913B018111D5
:1007400005C081E080933B0110921901E0913C01CA
:1007500081E08E0F80933C01F0E0E75EFE4F8081E8
:100760008093BB0090913C0180913B01981708F465
:100770007CCF85E88093BC000AC085EC8093BC00E8
:100780001092A90104C01092A7010E942101FF91BB
:10079000EF91BF91AF919F918F917F916F915F91F9
:1007A0004F913F912F910F900FBE0F901F90189572
:1007B0001F920F920FB60F9211242F933F938F9396
:1007C0009F93AF93BF938091110190911201A091DB
:1007D0001301B09114013091100123E0230F2D3744
:1007E00020F40196A11DB11D05C026E8230F029635
:1007F000A11DB11D2093100180931101909312014E
:10080000A0931301B09314018091150190911601EA
:10081000A0911701B09118010196A11DB11D8093FF
:10082000150190931601A0931701B0931801BF9181
:10083000AF919F918F913F912F910F900FBE0F908D
:100840001F901895EAEAF1E01382128288EE93E095
:10085000A0E0B0E084839583A683B78384E091E031
:10086000918380830895789484B5826084BD84B533
:10087000816084BD85B5826085BD85B5816085BD9B
:1008800080916E00816080936E0010928100809153
:1008900081008260809381008091810081608093DB
:1008A0008100809180008160809380008091B10000
:1008B00084608093B1008091B00081608093B0002B
:1008C00080917A00846080937A0080917A008260BF
:1008D00080937A0080917A00816080937A00809181
:1008E0007A00806880937A001092C1001092820191
:1008F00010926101109260011092B7011092D9011B
:100900001092A90181E08093A8011092830182E1F5
:100910000E94DB0083E10E94DB008091B9008E7FA2
:100920008093B9008091B9008D7F8093B90088E4ED
:100930008093B80085E48093BC006FEF80E00E9454
:1009400044026FEF81E00E94440280E00E94E601D1
:10095000682F6E7F80E00E944402C0E0D0E084E116
:100960000E94E601682F616082E10E9444020E94B9
:10097000840284E10E94E601682F6E7F82E10E947A
:1009800044020E948402209751F30E940000E7CFA6
:10099000F8940C94D104EE0FFF1F0590F491E02D14
:0609A0000994F894FFCF5A
:1009A60000000000BD018001780164015501540179
:00000001FF
